{
  "address": "0x2586a891a1ECa2cFEab9C7D09E19A0d19c43EfbF",
  "abi": [
    {
      "inputs": [
        {
          "internalType": "string",
          "name": "title_",
          "type": "string"
        },
        {
          "internalType": "string",
          "name": "description_",
          "type": "string"
        },
        {
          "internalType": "string",
          "name": "meetingLink_",
          "type": "string"
        },
        {
          "internalType": "uint256",
          "name": "time_",
          "type": "uint256"
        }
      ],
      "name": "createSpace",
      "outputs": [],
      "stateMutability": "nonpayable",
      "type": "function"
    },
    {
      "inputs": [
        {
          "internalType": "uint256",
          "name": "spaceId",
          "type": "uint256"
        }
      ],
      "name": "enterSpace",
      "outputs": [],
      "stateMutability": "nonpayable",
      "type": "function"
    },
    {
      "inputs": [
        {
          "internalType": "address",
          "name": "",
          "type": "address"
        }
      ],
      "name": "mappingToSpace",
      "outputs": [
        {
          "internalType": "address",
          "name": "owner",
          "type": "address"
        },
        {
          "internalType": "string",
          "name": "title",
          "type": "string"
        },
        {
          "internalType": "string",
          "name": "description",
          "type": "string"
        },
        {
          "internalType": "string",
          "name": "meetingLink",
          "type": "string"
        },
        {
          "internalType": "uint256",
          "name": "time",
          "type": "uint256"
        }
      ],
      "stateMutability": "view",
      "type": "function"
    },
    {
      "inputs": [
        {
          "internalType": "uint256",
          "name": "",
          "type": "uint256"
        }
      ],
      "name": "mappingUintToSpace",
      "outputs": [
        {
          "internalType": "address",
          "name": "owner",
          "type": "address"
        },
        {
          "internalType": "string",
          "name": "title",
          "type": "string"
        },
        {
          "internalType": "string",
          "name": "description",
          "type": "string"
        },
        {
          "internalType": "string",
          "name": "meetingLink",
          "type": "string"
        },
        {
          "internalType": "uint256",
          "name": "time",
          "type": "uint256"
        }
      ],
      "stateMutability": "view",
      "type": "function"
    },
    {
      "inputs": [],
      "name": "retieveSpaces",
      "outputs": [
        {
          "components": [
            {
              "internalType": "address",
              "name": "owner",
              "type": "address"
            },
            {
              "internalType": "string",
              "name": "title",
              "type": "string"
            },
            {
              "internalType": "string",
              "name": "description",
              "type": "string"
            },
            {
              "internalType": "string",
              "name": "meetingLink",
              "type": "string"
            },
            {
              "internalType": "uint256",
              "name": "time",
              "type": "uint256"
            },
            {
              "internalType": "address[]",
              "name": "particpant",
              "type": "address[]"
            }
          ],
          "internalType": "struct AudioSpace.Space[]",
          "name": "",
          "type": "tuple[]"
        }
      ],
      "stateMutability": "view",
      "type": "function"
    },
    {
      "inputs": [],
      "name": "spaceCounter",
      "outputs": [
        {
          "internalType": "uint256",
          "name": "",
          "type": "uint256"
        }
      ],
      "stateMutability": "view",
      "type": "function"
    },
    {
      "inputs": [
        {
          "internalType": "uint256",
          "name": "",
          "type": "uint256"
        }
      ],
      "name": "spaces",
      "outputs": [
        {
          "internalType": "address",
          "name": "owner",
          "type": "address"
        },
        {
          "internalType": "string",
          "name": "title",
          "type": "string"
        },
        {
          "internalType": "string",
          "name": "description",
          "type": "string"
        },
        {
          "internalType": "string",
          "name": "meetingLink",
          "type": "string"
        },
        {
          "internalType": "uint256",
          "name": "time",
          "type": "uint256"
        }
      ],
      "stateMutability": "view",
      "type": "function"
    }
  ],
  "transactionHash": "0x17140e82495f4f4b2e9b33ecd6fd458de684d2cfa2bb21e4e88c9851cff3a3ae",
  "args": [],
  "numDeployments": 1,
  "solcInputHash": "a823d4490e2ddd1a1fe0e18f5ffba840",
  "bytecode": "0x608060405234801561001057600080fd5b506111c2806100206000396000f3fe608060405234801561001057600080fd5b506004361061007d5760003560e01c80637cf171181161005b5780637cf17118146100d9578063a0593085146100ec578063e3653721146100ff578063ec8f03361461011257600080fd5b8063549c4123146100825780636f63676e146100a05780637586353b146100b5575b600080fd5b61008a610128565b6040516100979190610b19565b60405180910390f35b6100b36100ae366004610c48565b6103bf565b005b6100c86100c3366004610cfc565b6105ff565b604051610097959493929190610d1d565b6100b36100e7366004610cfc565b6107e3565b6100c86100fa366004610cfc565b610871565b6100c861010d366004610d92565b61089d565b61011b60035481565b6040516100979190610db3565b60606000805480602002602001604051908101604052809291908181526020016000905b828210156103b65760008481526020908190206040805160c081019091526006850290910180546001600160a01b03168252600181018054929391929184019161019590610dd7565b80601f01602080910402602001604051908101604052809291908181526020018280546101c190610dd7565b801561020e5780601f106101e35761010080835404028352916020019161020e565b820191906000526020600020905b8154815290600101906020018083116101f157829003601f168201915b5050505050815260200160028201805461022790610dd7565b80601f016020809104026020016040519081016040528092919081815260200182805461025390610dd7565b80156102a05780601f10610275576101008083540402835291602001916102a0565b820191906000526020600020905b81548152906001019060200180831161028357829003601f168201915b505050505081526020016003820180546102b990610dd7565b80601f01602080910402602001604051908101604052809291908181526020018280546102e590610dd7565b80156103325780601f1061030757610100808354040283529160200191610332565b820191906000526020600020905b81548152906001019060200180831161031557829003601f168201915b50505050508152602001600482015481526020016005820180548060200260200160405190810160405280929190818152602001828054801561039e57602002820191906000526020600020905b81546001600160a01b03168152600190910190602001808311610380575b5050505050815250508152602001906001019061014c565b50505050905090565b60008451116103e95760405162461bcd60e51b81526004016103e090610e3a565b60405180910390fd5b600082511161040a5760405162461bcd60e51b81526004016103e090610e7e565b336000818152600160208190526040909120805473ffffffffffffffffffffffffffffffffffffffff1916909217825581016104468682610f37565b50600281016104558582610f37565b50600381016104648482610f37565b50600481018290556000805460018181018355918052825460069091027f290decd9548b62a8d60345a988386fc84ba6bc95484008f6362f93160ef3e5638101805473ffffffffffffffffffffffffffffffffffffffff19166001600160a01b0390931692909217825583927f290decd9548b62a8d60345a988386fc84ba6bc95484008f6362f93160ef3e564909101906105019084018261100a565b506002818101906105149084018261100a565b506003818101906105279084018261100a565b506004820154816004015560058201816005019080546105489291906108ca565b505060035460009081526002602052604090208254815473ffffffffffffffffffffffffffffffffffffffff19166001600160a01b039091161781558291506001808201906105999084018261100a565b506002818101906105ac9084018261100a565b506003818101906105bf9084018261100a565b506004820154816004015560058201816005019080546105e09291906108ca565b505060038054915060006105f3836110ea565b91905055505050505050565b6000818154811061060f57600080fd5b6000918252602090912060069091020180546001820180546001600160a01b0390921693509061063e90610dd7565b80601f016020809104026020016040519081016040528092919081815260200182805461066a90610dd7565b80156106b75780601f1061068c576101008083540402835291602001916106b7565b820191906000526020600020905b81548152906001019060200180831161069a57829003601f168201915b5050505050908060020180546106cc90610dd7565b80601f01602080910402602001604051908101604052809291908181526020018280546106f890610dd7565b80156107455780601f1061071a57610100808354040283529160200191610745565b820191906000526020600020905b81548152906001019060200180831161072857829003601f168201915b50505050509080600301805461075a90610dd7565b80601f016020809104026020016040519081016040528092919081815260200182805461078690610dd7565b80156107d35780601f106107a8576101008083540402835291602001916107d3565b820191906000526020600020905b8154815290600101906020018083116107b657829003601f168201915b5050505050908060040154905085565b60035481106108045760405162461bcd60e51b81526004016103e090611138565b600081815260026020526040902080546001600160a01b0316330361083b5760405162461bcd60e51b81526004016103e09061117c565b60050180546001810182556000918252602090912001805473ffffffffffffffffffffffffffffffffffffffff19163317905550565b600260205260009081526040902080546001820180546001600160a01b03909216929161063e90610dd7565b6001602081905260009182526040909120805491810180546001600160a01b039093169261063e90610dd7565b82805482825590600052602060002090810192821561090a5760005260206000209182015b8281111561090a5782548255916001019190600101906108ef565b5061091692915061091a565b5090565b5b80821115610916576000815560010161091b565b60006001600160a01b0382165b92915050565b61094b8161092f565b82525050565b60005b8381101561096c578181015183820152602001610954565b50506000910152565b600061097f825190565b808452602084019350610996818560208601610951565b601f01601f19169290920192915050565b8061094b565b60006109b98383610942565b505060200190565b60006109cb825190565b80845260209384019383018060005b838110156109ff5781516109ee88826109ad565b9750602083019250506001016109da565b509495945050505050565b805160009060c0840190610a1e8582610942565b5060208301518482036020860152610a368282610975565b91505060408301518482036040860152610a508282610975565b91505060608301518482036060860152610a6a8282610975565b9150506080830151610a7f60808601826109a7565b5060a083015184820360a0860152610a9782826109c1565b95945050505050565b6000610aac8383610a0a565b9392505050565b6000610abd825190565b80845260208401935083602082028501610ad78560200190565b8060005b85811015610b0c5784840389528151610af48582610aa0565b94506020830160209a909a0199925050600101610adb565b5091979650505050505050565b60208082528101610aac8184610ab3565b634e487b7160e01b600052604160045260246000fd5b601f19601f830116810181811067ffffffffffffffff82111715610b6657610b66610b2a565b6040525050565b6000610b7860405190565b9050610b848282610b40565b919050565b600067ffffffffffffffff821115610ba357610ba3610b2a565b601f19601f83011660200192915050565b82818337506000910152565b6000610bd3610bce84610b89565b610b6d565b905082815260208101848484011115610bee57610bee600080fd5b610bf9848285610bb4565b509392505050565b600082601f830112610c1557610c15600080fd5b8135610c25848260208601610bc0565b949350505050565b805b8114610c3a57600080fd5b50565b803561093c81610c2d565b60008060008060808587031215610c6157610c61600080fd5b843567ffffffffffffffff811115610c7b57610c7b600080fd5b610c8787828801610c01565b945050602085013567ffffffffffffffff811115610ca757610ca7600080fd5b610cb387828801610c01565b935050604085013567ffffffffffffffff811115610cd357610cd3600080fd5b610cdf87828801610c01565b9250506060610cf087828801610c3d565b91505092959194509250565b600060208284031215610d1157610d11600080fd5b6000610c258484610c3d565b60a08101610d2b8288610942565b8181036020830152610d3d8187610975565b90508181036040830152610d518186610975565b90508181036060830152610d658185610975565b9050610d7460808301846109a7565b9695505050505050565b610c2f8161092f565b803561093c81610d7e565b600060208284031215610da757610da7600080fd5b6000610c258484610d87565b6020810161093c82846109a7565b634e487b7160e01b600052602260045260246000fd5b600281046001821680610deb57607f821691505b602082108103610dfd57610dfd610dc1565b50919050565b601581526000602082017f5469746c652063616e6e6f7420626520656d7074790000000000000000000000815291505b5060200190565b6020808252810161093c81610e03565b601c81526000602082017f4d656574696e67206c696e6b2063616e6e6f7420626520656d7074790000000081529150610e33565b6020808252810161093c81610e4a565b600061093c610e9a8381565b90565b610ea683610e8e565b81546008840282811b60001990911b908116901990911617825550505050565b6000610ed3818484610e9d565b505050565b81811015610ef357610eeb600082610ec6565b600101610ed8565b5050565b601f821115610ed3576000818152602090206020601f85010481016020851015610f1e5750805b610f306020601f860104830182610ed8565b5050505050565b815167ffffffffffffffff811115610f5157610f51610b2a565b610f5b8254610dd7565b610f66828285610ef7565b6020601f831160018114610f9b5760008415610f825750858201515b600019600886021c19811660028602175b865550610ff7565b600085815260208120601f198616915b82811015610fcb5788850151825560209485019460019092019101610fab565b86831015610fea57888501516000196008601f8a16021c1981165b8355505b6001600288020188555050505b505050505050565b805461093c81610dd7565b818103611015575050565b61101e82610fff565b67ffffffffffffffff81111561103657611036610b2a565b6110408254610dd7565b61104b828285610ef7565b6000601f83116001811461107b5760008415610f82575081860154600019600886021c1981166002860217610f93565b600095865260208087208688529087209096601f19861691905b828110156110b55788850154825560019485019490910190602001611095565b86831015610fea57888501546000196008601f8a16021c198116610fe6565b634e487b7160e01b600052601160045260246000fd5b600060001982036110fd576110fd6110d4565b5060010190565b601081526000602082017f496e76616c69642073706163652049440000000000000000000000000000000081529150610e33565b6020808252810161093c81611104565b601f81526000602082017f596f752061726520746865206f776e6572206f6620746869732073706163650081529150610e33565b6020808252810161093c8161114856fea26469706673582212202741e10a6ec516f456c2eccb05d5954242240fc3b66d2201dcf5b96e9eda20ee64736f6c63430008110033",
  "devdoc": {
    "kind": "dev",
    "methods": {},
    "version": 1
  },
  "userdoc": {
    "kind": "user",
    "methods": {},
    "version": 1
  },
  "storageLayout": {
    "storage": [
      {
        "astId": 1977,
        "contract": "contracts/AudioSpace.sol:AudioSpace",
        "label": "spaces",
        "offset": 0,
        "slot": "0",
        "type": "t_array(t_struct(Space)1973_storage)dyn_storage"
      },
      {
        "astId": 1982,
        "contract": "contracts/AudioSpace.sol:AudioSpace",
        "label": "mappingToSpace",
        "offset": 0,
        "slot": "1",
        "type": "t_mapping(t_address,t_struct(Space)1973_storage)"
      },
      {
        "astId": 1987,
        "contract": "contracts/AudioSpace.sol:AudioSpace",
        "label": "mappingUintToSpace",
        "offset": 0,
        "slot": "2",
        "type": "t_mapping(t_uint256,t_struct(Space)1973_storage)"
      },
      {
        "astId": 1989,
        "contract": "contracts/AudioSpace.sol:AudioSpace",
        "label": "spaceCounter",
        "offset": 0,
        "slot": "3",
        "type": "t_uint256"
      }
    ],
    "types": {
      "t_address": {
        "encoding": "inplace",
        "label": "address",
        "numberOfBytes": "20"
      },
      "t_array(t_address)dyn_storage": {
        "base": "t_address",
        "encoding": "dynamic_array",
        "label": "address[]",
        "numberOfBytes": "32"
      },
      "t_array(t_struct(Space)1973_storage)dyn_storage": {
        "base": "t_struct(Space)1973_storage",
        "encoding": "dynamic_array",
        "label": "struct AudioSpace.Space[]",
        "numberOfBytes": "32"
      },
      "t_mapping(t_address,t_struct(Space)1973_storage)": {
        "encoding": "mapping",
        "key": "t_address",
        "label": "mapping(address => struct AudioSpace.Space)",
        "numberOfBytes": "32",
        "value": "t_struct(Space)1973_storage"
      },
      "t_mapping(t_uint256,t_struct(Space)1973_storage)": {
        "encoding": "mapping",
        "key": "t_uint256",
        "label": "mapping(uint256 => struct AudioSpace.Space)",
        "numberOfBytes": "32",
        "value": "t_struct(Space)1973_storage"
      },
      "t_string_storage": {
        "encoding": "bytes",
        "label": "string",
        "numberOfBytes": "32"
      },
      "t_struct(Space)1973_storage": {
        "encoding": "inplace",
        "label": "struct AudioSpace.Space",
        "members": [
          {
            "astId": 1961,
            "contract": "contracts/AudioSpace.sol:AudioSpace",
            "label": "owner",
            "offset": 0,
            "slot": "0",
            "type": "t_address"
          },
          {
            "astId": 1963,
            "contract": "contracts/AudioSpace.sol:AudioSpace",
            "label": "title",
            "offset": 0,
            "slot": "1",
            "type": "t_string_storage"
          },
          {
            "astId": 1965,
            "contract": "contracts/AudioSpace.sol:AudioSpace",
            "label": "description",
            "offset": 0,
            "slot": "2",
            "type": "t_string_storage"
          },
          {
            "astId": 1967,
            "contract": "contracts/AudioSpace.sol:AudioSpace",
            "label": "meetingLink",
            "offset": 0,
            "slot": "3",
            "type": "t_string_storage"
          },
          {
            "astId": 1969,
            "contract": "contracts/AudioSpace.sol:AudioSpace",
            "label": "time",
            "offset": 0,
            "slot": "4",
            "type": "t_uint256"
          },
          {
            "astId": 1972,
            "contract": "contracts/AudioSpace.sol:AudioSpace",
            "label": "particpant",
            "offset": 0,
            "slot": "5",
            "type": "t_array(t_address)dyn_storage"
          }
        ],
        "numberOfBytes": "192"
      },
      "t_uint256": {
        "encoding": "inplace",
        "label": "uint256",
        "numberOfBytes": "32"
      }
    }
  }
}