{
  "address": "0x4c2A6385d4B9Ef1DFa2a8ebe21aca770b8106672",
  "abi": [
    {
      "inputs": [],
      "stateMutability": "nonpayable",
      "type": "constructor"
    },
    {
      "inputs": [
        {
          "internalType": "uint256",
          "name": "chainid",
          "type": "uint256"
        }
      ],
      "name": "ChainNotSupported",
      "type": "error"
    },
    {
      "anonymous": false,
      "inputs": [
        {
          "indexed": true,
          "internalType": "uint256",
          "name": "sessionId",
          "type": "uint256"
        }
      ],
      "name": "SessionAccepted",
      "type": "event"
    },
    {
      "anonymous": false,
      "inputs": [
        {
          "indexed": true,
          "internalType": "uint256",
          "name": "sessionId",
          "type": "uint256"
        }
      ],
      "name": "SessionCancelled",
      "type": "event"
    },
    {
      "anonymous": false,
      "inputs": [
        {
          "indexed": true,
          "internalType": "address",
          "name": "mentor",
          "type": "address"
        },
        {
          "indexed": true,
          "internalType": "address",
          "name": "student",
          "type": "address"
        },
        {
          "indexed": false,
          "internalType": "uint256",
          "name": "fee",
          "type": "uint256"
        },
        {
          "indexed": true,
          "internalType": "uint256",
          "name": "id",
          "type": "uint256"
        },
        {
          "indexed": false,
          "internalType": "string",
          "name": "meetingLink",
          "type": "string"
        }
      ],
      "name": "SessionScheduled",
      "type": "event"
    },
    {
      "inputs": [],
      "name": "_tableId",
      "outputs": [
        {
          "internalType": "uint256",
          "name": "",
          "type": "uint256"
        }
      ],
      "stateMutability": "view",
      "type": "function"
    },
    {
      "inputs": [
        {
          "internalType": "uint256",
          "name": "_sessionId",
          "type": "uint256"
        }
      ],
      "name": "acceptSession",
      "outputs": [],
      "stateMutability": "nonpayable",
      "type": "function"
    },
    {
      "inputs": [
        {
          "internalType": "uint256",
          "name": "_sessionId",
          "type": "uint256"
        }
      ],
      "name": "cancelSession",
      "outputs": [],
      "stateMutability": "nonpayable",
      "type": "function"
    },
    {
      "inputs": [],
      "name": "createSessionTable",
      "outputs": [],
      "stateMutability": "nonpayable",
      "type": "function"
    },
    {
      "inputs": [
        {
          "internalType": "address",
          "name": "_addr",
          "type": "address"
        }
      ],
      "name": "fetchMentorsPrice",
      "outputs": [
        {
          "internalType": "uint256",
          "name": "",
          "type": "uint256"
        }
      ],
      "stateMutability": "view",
      "type": "function"
    },
    {
      "inputs": [
        {
          "internalType": "address",
          "name": "",
          "type": "address"
        },
        {
          "internalType": "address",
          "name": "",
          "type": "address"
        },
        {
          "internalType": "uint256",
          "name": "",
          "type": "uint256"
        },
        {
          "internalType": "bytes",
          "name": "",
          "type": "bytes"
        }
      ],
      "name": "onERC721Received",
      "outputs": [
        {
          "internalType": "bytes4",
          "name": "",
          "type": "bytes4"
        }
      ],
      "stateMutability": "nonpayable",
      "type": "function"
    },
    {
      "inputs": [],
      "name": "owner",
      "outputs": [
        {
          "internalType": "address",
          "name": "",
          "type": "address"
        }
      ],
      "stateMutability": "view",
      "type": "function"
    },
    {
      "inputs": [
        {
          "internalType": "uint256",
          "name": "_amount",
          "type": "uint256"
        }
      ],
      "name": "registerMentorPrice",
      "outputs": [],
      "stateMutability": "nonpayable",
      "type": "function"
    },
    {
      "inputs": [
        {
          "internalType": "address",
          "name": "_mentor",
          "type": "address"
        },
        {
          "internalType": "string",
          "name": "_meetingLink",
          "type": "string"
        },
        {
          "internalType": "uint256",
          "name": "time",
          "type": "uint256"
        }
      ],
      "name": "scheduleSession",
      "outputs": [],
      "stateMutability": "payable",
      "type": "function"
    },
    {
      "inputs": [
        {
          "internalType": "address",
          "name": "",
          "type": "address"
        }
      ],
      "name": "sessionsAttendedCount",
      "outputs": [
        {
          "internalType": "uint256",
          "name": "",
          "type": "uint256"
        }
      ],
      "stateMutability": "view",
      "type": "function"
    },
    {
      "inputs": [
        {
          "internalType": "address",
          "name": "",
          "type": "address"
        }
      ],
      "name": "sessionsMentoredCount",
      "outputs": [
        {
          "internalType": "uint256",
          "name": "",
          "type": "uint256"
        }
      ],
      "stateMutability": "view",
      "type": "function"
    },
    {
      "inputs": [],
      "name": "tableName",
      "outputs": [
        {
          "internalType": "string",
          "name": "",
          "type": "string"
        }
      ],
      "stateMutability": "view",
      "type": "function"
    }
  ],
  "transactionHash": "0xd9b36dee97581adc3ce1c9fc8170541f0b4672e0d57ae0f38a0e47b61e97e027",
  "args": [],
  "numDeployments": 1,
  "solcInputHash": "a823d4490e2ddd1a1fe0e18f5ffba840",
  "bytecode": "0x60c0604052600c60809081526b73657373696f6e5461626c6560a01b60a0526002906200002d9082620006c8565b503480156200003b57600080fd5b50600480546001600160a01b03191633179055620000586200005e565b62000a08565b620000736200021560201b62000b601760201c565b6001600160a01b031663a15ab08d30620001446040518060a0016040528060768152602001620028e06076913960028054620000af90620005e1565b80601f0160208091040260200160405190810160405280929190818152602001828054620000dd90620005e1565b80156200012e5780601f1062000102576101008083540402835291602001916200012e565b820191906000526020600020905b8154815290600101906020018083116200011057829003601f168201915b5050505050620003e260201b62000d2f1760201c565b6040518363ffffffff1660e01b81526004016200016392919062000816565b6020604051808303816000875af115801562000183573d6000803e3d6000fd5b505050506040513d601f19601f82011682018060405250810190620001a991906200084a565b6001819055506002620001c7466200042860201b62000d661760201c565b620001df6001546200042860201b62000d661760201c565b604051602001620001f3939291906200091f565b60405160208183030381529060405260039081620002129190620006c8565b50565b60004660010362000239575073012969f7e3439a9b04025b5a049eb9bad82a8c1290565b46600a036200025b575073fad44bf5b843de943a09d4f3e84949a11d3aa3e690565b4661a4b1036200027e5750739abd75e8640871a5a20d3b4ee6330a04c962affd90565b4661a4ba03620002a15750731a22854c5b1642760a827f20137a67930ae108d290565b46608903620002c35750735c4e6a9e5c1e1bf445a062006faf19ea6c49afea90565b4661013a03620002e657507359ef8bf2d6c102b4c42aef9189e1a9f0abfd652d90565b4662aa36a7036200030a575073c50c62498448acc8dbde43da77f8d5d2e2c7597d90565b466101a4036200032d575073c72e8a7be04f2469f8c2db3f1bdf69a7d516abba90565b4662066eed0362000351575073033f69e8d119205089ab15d340f5b797732f646b90565b466201388103620003755750734b48841d4b32c4650e4abc117a03fe8b51f38f6890565b466204cb2f0362000399575073030bcf3d50cad04c2e57391b12740982a930862190565b46617a6903620003bc575073e7f1725e7734ce288f8367e1bb143e90bb3f051290565b4660405163264e42cf60e01b8152600401620003d9919062000973565b60405180910390fd5b606081620003fb466200042860201b62000d661760201c565b846040516020016200041093929190620009a1565b60405160208183030381529060405290505b92915050565b606060006200044283620004cc60201b62000e071760201c565b60010190506000816001600160401b03811115620004645762000464620005b5565b6040519080825280601f01601f1916602001820160405280156200048f576020820181803683370190505b5090508181016020015b600019016f181899199a1a9b1b9c1cb0b131b232b360811b600a86061a8153600a85049450846200049957509392505050565b6000807a184f03e93ff9f4daa797ed6e38ed64bf6a1f010000000000000000831062000516577a184f03e93ff9f4daa797ed6e38ed64bf6a1f010000000000000000830492506040015b6d04ee2d6d415b85acef8100000000831062000543576d04ee2d6d415b85acef8100000000830492506020015b662386f26fc1000083106200056257662386f26fc10000830492506010015b6305f5e10083106200057b576305f5e100830492506008015b61271083106200059057612710830492506004015b60648310620005a3576064830492506002015b600a8310620004225760010192915050565b634e487b7160e01b600052604160045260246000fd5b634e487b7160e01b600052602260045260246000fd5b600281046001821680620005f657607f821691505b6020821081036200060b576200060b620005cb565b50919050565b6000620004226200061f8381565b90565b6200062d8362000611565b81546008840282811b60001990911b908116901990911617825550505050565b60006200065c81848462000622565b505050565b818110156200068057620006776000826200064d565b60010162000661565b5050565b601f8211156200065c576000818152602090206020601f85010481016020851015620006ad5750805b620006c16020601f86010483018262000661565b5050505050565b81516001600160401b03811115620006e457620006e4620005b5565b620006f08254620005e1565b620006fd82828562000684565b6020601f8311600181146200073457600084156200071b5750858201515b600019600886021c198116600286021786555062000790565b600085815260208120601f198616915b8281101562000766578885015182556020948501946001909201910162000744565b86831015620007835784890151600019601f89166008021c191682555b6001600288020188555050505b505050505050565b60006001600160a01b03821662000422565b620007b58162000798565b82525050565b60005b83811015620007d8578181015183820152602001620007be565b50506000910152565b6000620007ec825190565b80845260208401935062000805818560208601620007bb565b601f01601f19169290920192915050565b60408101620008268285620007aa565b81810360208301526200083a8184620007e1565b949350505050565b805162000422565b600060208284031215620008615762000861600080fd5b60006200083a848462000842565b600081546200087e81620005e1565b600182168015620008985760018114620008ae57620008e0565b60ff1983168652811515820286019350620008e0565b60008581526020902060005b83811015620008d857815488820152600190910190602001620008ba565b838801955050505b50505092915050565b605f60f81b815260005b5060010190565b600062000905825190565b62000915818560208601620007bb565b9290920192915050565b60006200092d82866200086f565b91506200093a82620008e9565b9150620009488285620008fa565b91506200095582620008e9565b9150620009638284620008fa565b95945050505050565b80620007b5565b602081016200042282846200096c565b600560fb1b81526000620008f3565b602960f81b81526000620008f3565b6c021a922a0aa22902a20a126229609d1b8152600d016000620009c58286620008fa565b9150620009d282620008e9565b9150620009e08285620008fa565b9150620009ed8262000983565b9150620009fb8284620008fa565b9150620009638262000992565b611ec88062000a186000396000f3fe6080604052600436106100c75760003560e01c80635a01e62911610074578063b435d1bf1161004e578063b435d1bf1461022f578063e0510ad81461025c578063e27f93701461029257600080fd5b80635a01e629146101b55780636564e5b0146101d55780638da5cb5b1461020257600080fd5b806317c9a24c116100a557806317c9a24c1461015d5780631a7b935f146101805780632dc905f71461019557600080fd5b80630118565f146100cc57806313140aef146100f7578063150b7a021461010c575b600080fd5b3480156100d857600080fd5b506100e16102b2565b6040516100ee9190611217565b60405180910390f35b61010a610105366004611364565b610340565b005b34801561011857600080fd5b506101506101273660046113cf565b7f150b7a0200000000000000000000000000000000000000000000000000000000949350505050565b6040516100ee9190611478565b34801561016957600080fd5b5061017360015481565b6040516100ee919061148c565b34801561018c57600080fd5b5061010a61060d565b3480156101a157600080fd5b5061010a6101b036600461149a565b61077b565b3480156101c157600080fd5b5061010a6101d036600461149a565b6107ad565b3480156101e157600080fd5b506101736101f03660046114bb565b60056020526000908152604090205481565b34801561020e57600080fd5b50600454610222906001600160a01b031681565b6040516100ee91906114e5565b34801561023b57600080fd5b5061017361024a3660046114bb565b60066020526000908152604090205481565b34801561026857600080fd5b506101736102773660046114bb565b6001600160a01b031660009081526008602052604090205490565b34801561029e57600080fd5b5061010a6102ad36600461149a565b610a86565b600380546102bf90611509565b80601f01602080910402602001604051908101604052809291908181526020018280546102eb90611509565b80156103385780601f1061030d57610100808354040283529160200191610338565b820191906000526020600020905b81548152906001019060200180831161031b57829003601f168201915b505050505081565b6001600160a01b0383166000908152600860205260409020546000036103815760405162461bcd60e51b81526004016103789061156c565b60405180910390fd5b6001600160a01b0383166000908152600860205260409020543410156103b95760405162461bcd60e51b8152600401610378906115b0565b80600760006103c760005490565b8152602001908152602001600020600201819055506001600760006103eb60005490565b81526020810191909152604001600020600301805460ff1916911515919091179055610415610b60565b6001600160a01b031663377af0da306001546105546002805461043790611509565b80601f016020809104026020016040519081016040528092919081815260200182805461046390611509565b80156104b05780601f10610485576101008083540402835291602001916104b0565b820191906000526020600020905b81548152906001019060200180831161049357829003601f168201915b50505050506001546040518060600160405280603f8152602001611dde603f91396104e26104dd60005490565b610d66565b6104f36104ee8d610ee9565b610eff565b6104ff6104ee33610ee9565b6105096000610d66565b6105156104ee8e610d66565b61051e8f610eff565b61052a6104ee34610d66565b60405160200161054097969594939291906115e2565b604051602081830303815290604052610f28565b6040518463ffffffff1660e01b81526004016105729392919061167f565b600060405180830381600087803b15801561058c57600080fd5b505af11580156105a0573d6000803e3d6000fd5b505050506105ad60005490565b336001600160a01b0316846001600160a01b03167f213b630533ad25ce61101835b0a209f87d24b7edcb72b10ab399bc7ce135f5e434866040516105f29291906116b5565b60405180910390a4610608600080546001019055565b505050565b610615610b60565b6001600160a01b031663a15ab08d306106d06040518060a0016040528060768152602001611e1d607691396002805461064d90611509565b80601f016020809104026020016040519081016040528092919081815260200182805461067990611509565b80156106c65780601f1061069b576101008083540402835291602001916106c6565b820191906000526020600020905b8154815290600101906020018083116106a957829003601f168201915b5050505050610d2f565b6040518363ffffffff1660e01b81526004016106ed9291906116d5565b6020604051808303816000875af115801561070c573d6000803e3d6000fd5b505050506040513d601f19601f8201168201806040525081019061073091906116ee565b600155600261073e46610d66565b610749600154610d66565b60405160200161075b939291906117ae565b60405160208183030381529060405260039081610778919061188c565b50565b8060000361079b5760405162461bcd60e51b815260040161037890611984565b33600090815260086020526040902055565b600081815260076020526040902060018101546001600160a01b031633146107e75760405162461bcd60e51b8152600401610378906119f1565b600381015460ff161561080c5760405162461bcd60e51b815260040161037890611a35565b60038101805460ff191660019081179091558101546001600160a01b03166000818152600860205260408082205490516108fc82150292818181858888f19350505050158015610860573d6000803e3d6000fd5b506001818101546001600160a01b03166000908152600660205260408120805490919061088e908490611a5b565b909155505080546001600160a01b031660009081526005602052604081208054600192906108bd908490611a5b565b9091555050604080517f697341636365707465643d00000000000000000000000000000000000000000060208201527f7472756500000000000000000000000000000000000000000000000000000000602b8201528151600f818303018152602f90910190915260006109326104ee85610d66565b6040516020016109429190611a6e565b604051602081830303815290604052905061095b610b60565b6001600160a01b031663377af0da30600154610a056002805461097d90611509565b80601f01602080910402602001604051908101604052809291908181526020018280546109a990611509565b80156109f65780601f106109cb576101008083540402835291602001916109f6565b820191906000526020600020905b8154815290600101906020018083116109d957829003601f168201915b50505050506001548888610f67565b6040518463ffffffff1660e01b8152600401610a239392919061167f565b600060405180830381600087803b158015610a3d57600080fd5b505af1158015610a51573d6000803e3d6000fd5b50506040518692507fa8e222f86c5c12a635a413c7ff6fc4f543bdabcaaa7a0048a6e1913faac449679150600090a250505050565b600081815260076020526040902080546001600160a01b0316331480610ab8575060018101546001600160a01b031633145b610ad45760405162461bcd60e51b815260040161037890611afa565b805460018201546001600160a01b039081166000908152600860205260409020549116906108fc906040518115909202916000818181858888f19350505050158015610b24573d6000803e3d6000fd5b5060038101805460ff1916905560405182907f83db11557caa3518e394ee3589033b042b4f03f0ed0495a829208e71bfa37f0590600090a25050565b600046600103610b83575073012969f7e3439a9b04025b5a049eb9bad82a8c1290565b46600a03610ba4575073fad44bf5b843de943a09d4f3e84949a11d3aa3e690565b4661a4b103610bc65750739abd75e8640871a5a20d3b4ee6330a04c962affd90565b4661a4ba03610be85750731a22854c5b1642760a827f20137a67930ae108d290565b46608903610c095750735c4e6a9e5c1e1bf445a062006faf19ea6c49afea90565b4661013a03610c2b57507359ef8bf2d6c102b4c42aef9189e1a9f0abfd652d90565b4662aa36a703610c4e575073c50c62498448acc8dbde43da77f8d5d2e2c7597d90565b466101a403610c70575073c72e8a7be04f2469f8c2db3f1bdf69a7d516abba90565b4662066eed03610c93575073033f69e8d119205089ab15d340f5b797732f646b90565b466201388103610cb65750734b48841d4b32c4650e4abc117a03fe8b51f38f6890565b466204cb2f03610cd9575073030bcf3d50cad04c2e57391b12740982a930862190565b46617a6903610cfb575073e7f1725e7734ce288f8367e1bb143e90bb3f051290565b466040517f264e42cf000000000000000000000000000000000000000000000000000000008152600401610378919061148c565b606081610d3b46610d66565b84604051602001610d4e93929190611b5e565b60405160208183030381529060405290505b92915050565b60606000610d7383610e07565b600101905060008167ffffffffffffffff811115610d9357610d93611258565b6040519080825280601f01601f191660200182016040528015610dbd576020820181803683370190505b5090508181016020015b600019017f3031323334353637383961626364656600000000000000000000000000000000600a86061a8153600a8504945084610dc7575b509392505050565b6000807a184f03e93ff9f4daa797ed6e38ed64bf6a1f0100000000000000008310610e50577a184f03e93ff9f4daa797ed6e38ed64bf6a1f010000000000000000830492506040015b6d04ee2d6d415b85acef81000000008310610e7c576d04ee2d6d415b85acef8100000000830492506020015b662386f26fc100008310610e9a57662386f26fc10000830492506010015b6305f5e1008310610eb2576305f5e100830492506008015b6127108310610ec657612710830492506004015b60648310610ed8576064830492506002015b600a8310610d605760010192915050565b6060610d606001600160a01b0383166014610fe2565b606081604051602001610f129190611bf3565b6040516020818303038152906040529050919050565b60606000610f36868661119a565b9050808484604051602001610f4d93929190611c15565b604051602081830303815290604052915050949350505050565b60606000610f75868661119a565b60408051602081019091526000815284519192509015610fb25783604051602001610fa09190611cb9565b60405160208183030381529060405290505b818582604051602001610fc793929190611cfa565b60405160208183030381529060405292505050949350505050565b60606000610ff1836002611d43565b610ffc906002611a5b565b67ffffffffffffffff81111561101457611014611258565b6040519080825280601f01601f19166020018201604052801561103e576020820181803683370190505b5090507f30000000000000000000000000000000000000000000000000000000000000008160008151811061107557611075611d62565b60200101906001600160f81b031916908160001a9053507f7800000000000000000000000000000000000000000000000000000000000000816001815181106110c0576110c0611d62565b60200101906001600160f81b031916908160001a90535060006110e4846002611d43565b6110ef906001611a5b565b90505b6001811115611174577f303132333435363738396162636465660000000000000000000000000000000085600f166010811061113057611130611d62565b1a60f81b82828151811061114657611146611d62565b60200101906001600160f81b031916908160001a90535060049490941c9361116d81611d78565b90506110f2565b5083156111935760405162461bcd60e51b815260040161037890611dc1565b9392505050565b6060826111a646610d66565b6111af84610d66565b604051602001610d4e93929190611dd1565b60005b838110156111dc5781810151838201526020016111c4565b50506000910152565b60006111ef825190565b8084526020840193506112068185602086016111c1565b601f01601f19169290920192915050565b6020808252810161119381846111e5565b60006001600160a01b038216610d60565b61124281611228565b811461077857600080fd5b8035610d6081611239565b634e487b7160e01b600052604160045260246000fd5b601f19601f830116810181811067ffffffffffffffff8211171561129457611294611258565b6040525050565b60006112a660405190565b90506112b2828261126e565b919050565b600067ffffffffffffffff8211156112d1576112d1611258565b601f19601f83011660200192915050565b82818337506000910152565b60006113016112fc846112b7565b61129b565b90508281526020810184848401111561131c5761131c600080fd5b610dff8482856112e2565b600082601f83011261133b5761133b600080fd5b813561134b8482602086016112ee565b949350505050565b80611242565b8035610d6081611353565b60008060006060848603121561137c5761137c600080fd5b6000611388868661124d565b935050602084013567ffffffffffffffff8111156113a8576113a8600080fd5b6113b486828701611327565b92505060406113c586828701611359565b9150509250925092565b600080600080608085870312156113e8576113e8600080fd5b60006113f4878761124d565b94505060206114058782880161124d565b935050604061141687828801611359565b925050606085013567ffffffffffffffff81111561143657611436600080fd5b61144287828801611327565b91505092959194509250565b7fffffffff0000000000000000000000000000000000000000000000000000000081165b82525050565b60208101610d60828461144e565b80611472565b60208101610d608284611486565b6000602082840312156114af576114af600080fd5b600061134b8484611359565b6000602082840312156114d0576114d0600080fd5b600061134b848461124d565b61147281611228565b60208101610d6082846114dc565b634e487b7160e01b600052602260045260246000fd5b60028104600182168061151d57607f821691505b60208210810361152f5761152f6114f3565b50919050565b600e81526000602082017f496e76616c6964204d656e746f72000000000000000000000000000000000000815291505b5060200190565b60208082528101610d6081611535565b600f81526000602082017f43616e7420706179206d656e746f72000000000000000000000000000000000081529150611565565b60208082528101610d608161157c565b60006115ca825190565b6115d88185602086016111c1565b9290920192915050565b60006115ee828a6115c0565b600b60fa1b8152600101915061160482896115c0565b600b60fa1b8152600101915061161a82886115c0565b600b60fa1b8152600101915061163082876115c0565b600b60fa1b8152600101915061164682866115c0565b600b60fa1b8152600101915061165c82856115c0565b600b60fa1b8152600101915061167282846115c0565b9998505050505050505050565b6060810161168d82866114dc565b61169a6020830185611486565b81810360408301526116ac81846111e5565b95945050505050565b604081016116c38285611486565b818103602083015261134b81846111e5565b604081016116c382856114dc565b8051610d6081611353565b60006020828403121561170357611703600080fd5b600061134b84846116e3565b6000815461171c81611509565b600182168015611733576001811461174857611778565b60ff1983168652811515820286019350611778565b60008581526020902060005b8381101561177057815488820152600190910190602001611754565b838801955050505b50505092915050565b7f5f00000000000000000000000000000000000000000000000000000000000000815260005b5060010190565b60006117ba828661170f565b91506117c582611781565b91506117d182856115c0565b91506117dc82611781565b91506116ac82846115c0565b6000610d606117f48381565b90565b611800836117e8565b81546008840282811b60001990911b908116901990911617825550505050565b60006106088184846117f7565b8181101561184857611840600082611820565b60010161182d565b5050565b601f821115610608576000818152602090206020601f850104810160208510156118735750805b6118856020601f86010483018261182d565b5050505050565b815167ffffffffffffffff8111156118a6576118a6611258565b6118b08254611509565b6118bb82828561184c565b6020601f8311600181146118ef57600084156118d75750858201515b600019600886021c1981166002860217865550611948565b600085815260208120601f198616915b8281101561191f57888501518255602094850194600190920191016118ff565b8683101561193b5784890151600019601f89166008021c191682555b6001600288020188555050505b505050505050565b601481526000602082017f43416e7420736574207a65726f20616d6f756e7400000000000000000000000081529150611565565b60208082528101610d6081611950565b602681526000602082017f596f7520617265206e6f7420746865206d656e746f72206f662074686973207381527f657373696f6e0000000000000000000000000000000000000000000000000000602082015291505b5060400190565b60208082528101610d6081611994565b601081526000602082017f416c72656164792061636365707465640000000000000000000000000000000081529150611565565b60208082528101610d6081611a01565b634e487b7160e01b600052601160045260246000fd5b80820180821115610d6057610d60611a45565b7f73657373696f6e496400000000000000000000000000000000000000000000008152600901600061119382846115c0565b603681526000602082017f596f7520617265206e6f7420617574686f72697a656420746f206d616b65206381527f68616e67657320746f20746869732073657373696f6e00000000000000000000602082015291506119ea565b60208082528101610d6081611aa0565b7f2800000000000000000000000000000000000000000000000000000000000000815260006117a7565b7f2900000000000000000000000000000000000000000000000000000000000000815260006117a7565b7f435245415445205441424c4520000000000000000000000000000000000000008152600d016000611b9082866115c0565b9150611b9b82611781565b9150611ba782856115c0565b9150611bb282611b0a565b9150611bbe82846115c0565b91506116ac82611b34565b7f2700000000000000000000000000000000000000000000000000000000000000815260006117a7565b6000611bfe82611bc9565b9150611c0a82846115c0565b915061119382611bc9565b7f494e5345525420494e544f2000000000000000000000000000000000000000008152600c016000611c4782866115c0565b9150611c5282611b0a565b9150611c5e82856115c0565b7f2956414c554553280000000000000000000000000000000000000000000000008152915060088201611bb2565b7f2057484552452000000000000000000000000000000000000000000000000000815260005b5060070190565b6000611cc482611c8c565b915061119382846115c0565b7f555044415445200000000000000000000000000000000000000000000000000081526000611cb2565b6000611d0582611cd0565b9150611d1182866115c0565b7f2053455420000000000000000000000000000000000000000000000000000000815260050191506117dc82856115c0565b818102808215838204851417611d5b57611d5b611a45565b5092915050565b634e487b7160e01b600052603260045260246000fd5b600081611d8757611d87611a45565b506000190190565b60208082527f537472696e67733a20686578206c656e67746820696e73756666696369656e7491019081526000611565565b60208082528101610d6081611d8f565b60006117ba82866115c056fe73657373696f6e49642c6d656e746f722c73747564656e742c697341636365707465642c74696d652c6d656574696e674c696e6b2c7061796d656e7446656573657373696f6e496420696e7465676572207072696d617279206b65792c6d656e746f7220746578742c73747564656e7420746578742c69734163636570746564204e554d4245522831292c74696d6520746578742c6d656574696e674c696e6b20746578742c7061796d656e744665652074657874a26469706673582212201a4ab80d15b17f76da38da2809e4aa45b7f4cfa7bc34094463de410cbbad29ef64736f6c6343000811003373657373696f6e496420696e7465676572207072696d617279206b65792c6d656e746f7220746578742c73747564656e7420746578742c69734163636570746564204e554d4245522831292c74696d6520746578742c6d656574696e674c696e6b20746578742c7061796d656e744665652074657874",
  "devdoc": {
    "kind": "dev",
    "methods": {
      "onERC721Received(address,address,uint256,bytes)": {
        "details": "See {IERC721Receiver-onERC721Received}. Always returns `IERC721Receiver.onERC721Received.selector`."
      }
    },
    "version": 1
  },
  "userdoc": {
    "errors": {
      "ChainNotSupported(uint256)": [
        {
          "notice": "Current chain does not have a TablelandTables deployment."
        }
      ]
    },
    "kind": "user",
    "methods": {},
    "version": 1
  },
  "storageLayout": {
    "storage": [
      {
        "astId": 2491,
        "contract": "contracts/LearningSession.sol:LearningSession",
        "label": "_sessionID",
        "offset": 0,
        "slot": "0",
        "type": "t_struct(Counter)50_storage"
      },
      {
        "astId": 2513,
        "contract": "contracts/LearningSession.sol:LearningSession",
        "label": "_tableId",
        "offset": 0,
        "slot": "1",
        "type": "t_uint256"
      },
      {
        "astId": 2516,
        "contract": "contracts/LearningSession.sol:LearningSession",
        "label": "_TABLE_PREFIX",
        "offset": 0,
        "slot": "2",
        "type": "t_string_storage"
      },
      {
        "astId": 2518,
        "contract": "contracts/LearningSession.sol:LearningSession",
        "label": "tableName",
        "offset": 0,
        "slot": "3",
        "type": "t_string_storage"
      },
      {
        "astId": 2520,
        "contract": "contracts/LearningSession.sol:LearningSession",
        "label": "owner",
        "offset": 0,
        "slot": "4",
        "type": "t_address"
      },
      {
        "astId": 2533,
        "contract": "contracts/LearningSession.sol:LearningSession",
        "label": "sessionsAttendedCount",
        "offset": 0,
        "slot": "5",
        "type": "t_mapping(t_address,t_uint256)"
      },
      {
        "astId": 2537,
        "contract": "contracts/LearningSession.sol:LearningSession",
        "label": "sessionsMentoredCount",
        "offset": 0,
        "slot": "6",
        "type": "t_mapping(t_address,t_uint256)"
      },
      {
        "astId": 2542,
        "contract": "contracts/LearningSession.sol:LearningSession",
        "label": "sessions",
        "offset": 0,
        "slot": "7",
        "type": "t_mapping(t_uint256,t_struct(session)2529_storage)"
      },
      {
        "astId": 2546,
        "contract": "contracts/LearningSession.sol:LearningSession",
        "label": "mentorsPrice",
        "offset": 0,
        "slot": "8",
        "type": "t_mapping(t_address,t_uint256)"
      }
    ],
    "types": {
      "t_address": {
        "encoding": "inplace",
        "label": "address",
        "numberOfBytes": "20"
      },
      "t_bool": {
        "encoding": "inplace",
        "label": "bool",
        "numberOfBytes": "1"
      },
      "t_mapping(t_address,t_uint256)": {
        "encoding": "mapping",
        "key": "t_address",
        "label": "mapping(address => uint256)",
        "numberOfBytes": "32",
        "value": "t_uint256"
      },
      "t_mapping(t_uint256,t_struct(session)2529_storage)": {
        "encoding": "mapping",
        "key": "t_uint256",
        "label": "mapping(uint256 => struct LearningSession.session)",
        "numberOfBytes": "32",
        "value": "t_struct(session)2529_storage"
      },
      "t_string_storage": {
        "encoding": "bytes",
        "label": "string",
        "numberOfBytes": "32"
      },
      "t_struct(Counter)50_storage": {
        "encoding": "inplace",
        "label": "struct Counters.Counter",
        "members": [
          {
            "astId": 49,
            "contract": "contracts/LearningSession.sol:LearningSession",
            "label": "_value",
            "offset": 0,
            "slot": "0",
            "type": "t_uint256"
          }
        ],
        "numberOfBytes": "32"
      },
      "t_struct(session)2529_storage": {
        "encoding": "inplace",
        "label": "struct LearningSession.session",
        "members": [
          {
            "astId": 2522,
            "contract": "contracts/LearningSession.sol:LearningSession",
            "label": "student",
            "offset": 0,
            "slot": "0",
            "type": "t_address"
          },
          {
            "astId": 2524,
            "contract": "contracts/LearningSession.sol:LearningSession",
            "label": "mentor",
            "offset": 0,
            "slot": "1",
            "type": "t_address"
          },
          {
            "astId": 2526,
            "contract": "contracts/LearningSession.sol:LearningSession",
            "label": "time",
            "offset": 0,
            "slot": "2",
            "type": "t_uint256"
          },
          {
            "astId": 2528,
            "contract": "contracts/LearningSession.sol:LearningSession",
            "label": "isActive",
            "offset": 0,
            "slot": "3",
            "type": "t_bool"
          }
        ],
        "numberOfBytes": "128"
      },
      "t_uint256": {
        "encoding": "inplace",
        "label": "uint256",
        "numberOfBytes": "32"
      }
    }
  }
}