{
  "address": "0x4E8E32739f286cA21FFFAAaCCe074E33C5E5efC9",
  "abi": [
    {
      "inputs": [],
      "stateMutability": "nonpayable",
      "type": "constructor"
    },
    {
      "inputs": [
        {
          "internalType": "uint256",
          "name": "chainid",
          "type": "uint256"
        }
      ],
      "name": "ChainNotSupported",
      "type": "error"
    },
    {
      "anonymous": false,
      "inputs": [
        {
          "indexed": true,
          "internalType": "uint256",
          "name": "id",
          "type": "uint256"
        },
        {
          "indexed": true,
          "internalType": "address",
          "name": "owner",
          "type": "address"
        },
        {
          "indexed": false,
          "internalType": "string",
          "name": "ipfsHash",
          "type": "string"
        }
      ],
      "name": "PodcastUploaded",
      "type": "event"
    },
    {
      "inputs": [],
      "name": "_TABLE_PREFIX",
      "outputs": [
        {
          "internalType": "string",
          "name": "",
          "type": "string"
        }
      ],
      "stateMutability": "view",
      "type": "function"
    },
    {
      "inputs": [],
      "name": "_tableId",
      "outputs": [
        {
          "internalType": "uint256",
          "name": "",
          "type": "uint256"
        }
      ],
      "stateMutability": "view",
      "type": "function"
    },
    {
      "inputs": [],
      "name": "createPodcastTable",
      "outputs": [],
      "stateMutability": "nonpayable",
      "type": "function"
    },
    {
      "inputs": [
        {
          "internalType": "address",
          "name": "",
          "type": "address"
        },
        {
          "internalType": "address",
          "name": "",
          "type": "address"
        },
        {
          "internalType": "uint256",
          "name": "",
          "type": "uint256"
        },
        {
          "internalType": "bytes",
          "name": "",
          "type": "bytes"
        }
      ],
      "name": "onERC721Received",
      "outputs": [
        {
          "internalType": "bytes4",
          "name": "",
          "type": "bytes4"
        }
      ],
      "stateMutability": "nonpayable",
      "type": "function"
    },
    {
      "inputs": [],
      "name": "owner",
      "outputs": [
        {
          "internalType": "address",
          "name": "",
          "type": "address"
        }
      ],
      "stateMutability": "view",
      "type": "function"
    },
    {
      "inputs": [
        {
          "internalType": "address",
          "name": "",
          "type": "address"
        }
      ],
      "name": "supportCount",
      "outputs": [
        {
          "internalType": "uint256",
          "name": "",
          "type": "uint256"
        }
      ],
      "stateMutability": "view",
      "type": "function"
    },
    {
      "inputs": [
        {
          "internalType": "uint256",
          "name": "_id",
          "type": "uint256"
        }
      ],
      "name": "supportPodcast",
      "outputs": [],
      "stateMutability": "payable",
      "type": "function"
    },
    {
      "inputs": [],
      "name": "tableName",
      "outputs": [
        {
          "internalType": "string",
          "name": "",
          "type": "string"
        }
      ],
      "stateMutability": "view",
      "type": "function"
    },
    {
      "inputs": [
        {
          "internalType": "string",
          "name": "_ipfsHash",
          "type": "string"
        },
        {
          "internalType": "uint256",
          "name": "_amount",
          "type": "uint256"
        }
      ],
      "name": "uploadPodcast",
      "outputs": [],
      "stateMutability": "payable",
      "type": "function"
    }
  ],
  "transactionHash": "0xc0edc8c89b9498ff3072e8463a59fe2de1b03f0ba36cdc667e67fa753c7988a3",
  "args": [],
  "numDeployments": 1,
  "solcInputHash": "a823d4490e2ddd1a1fe0e18f5ffba840",
  "bytecode": "0x60c0604052600c60809081526b706f64636173745461626c6560a01b60a0526002906200002d9082620006c8565b503480156200003b57600080fd5b50600480546001600160a01b03191633179055620000586200005e565b62000a08565b620000736200021560201b620008d41760201c565b6001600160a01b031663a15ab08d30620001446040518060800160405280605a815260200162002594605a913960028054620000af90620005e1565b80601f0160208091040260200160405190810160405280929190818152602001828054620000dd90620005e1565b80156200012e5780601f1062000102576101008083540402835291602001916200012e565b820191906000526020600020905b8154815290600101906020018083116200011057829003601f168201915b5050505050620003e260201b62000aa31760201c565b6040518363ffffffff1660e01b81526004016200016392919062000816565b6020604051808303816000875af115801562000183573d6000803e3d6000fd5b505050506040513d601f19601f82011682018060405250810190620001a991906200084a565b6001819055506002620001c7466200042860201b62000ada1760201c565b620001df6001546200042860201b62000ada1760201c565b604051602001620001f3939291906200091f565b60405160208183030381529060405260039081620002129190620006c8565b50565b60004660010362000239575073012969f7e3439a9b04025b5a049eb9bad82a8c1290565b46600a036200025b575073fad44bf5b843de943a09d4f3e84949a11d3aa3e690565b4661a4b1036200027e5750739abd75e8640871a5a20d3b4ee6330a04c962affd90565b4661a4ba03620002a15750731a22854c5b1642760a827f20137a67930ae108d290565b46608903620002c35750735c4e6a9e5c1e1bf445a062006faf19ea6c49afea90565b4661013a03620002e657507359ef8bf2d6c102b4c42aef9189e1a9f0abfd652d90565b4662aa36a7036200030a575073c50c62498448acc8dbde43da77f8d5d2e2c7597d90565b466101a4036200032d575073c72e8a7be04f2469f8c2db3f1bdf69a7d516abba90565b4662066eed0362000351575073033f69e8d119205089ab15d340f5b797732f646b90565b466201388103620003755750734b48841d4b32c4650e4abc117a03fe8b51f38f6890565b466204cb2f0362000399575073030bcf3d50cad04c2e57391b12740982a930862190565b46617a6903620003bc575073e7f1725e7734ce288f8367e1bb143e90bb3f051290565b4660405163264e42cf60e01b8152600401620003d9919062000973565b60405180910390fd5b606081620003fb466200042860201b62000ada1760201c565b846040516020016200041093929190620009a1565b60405160208183030381529060405290505b92915050565b606060006200044283620004cc60201b62000b7b1760201c565b60010190506000816001600160401b03811115620004645762000464620005b5565b6040519080825280601f01601f1916602001820160405280156200048f576020820181803683370190505b5090508181016020015b600019016f181899199a1a9b1b9c1cb0b131b232b360811b600a86061a8153600a85049450846200049957509392505050565b6000807a184f03e93ff9f4daa797ed6e38ed64bf6a1f010000000000000000831062000516577a184f03e93ff9f4daa797ed6e38ed64bf6a1f010000000000000000830492506040015b6d04ee2d6d415b85acef8100000000831062000543576d04ee2d6d415b85acef8100000000830492506020015b662386f26fc1000083106200056257662386f26fc10000830492506010015b6305f5e10083106200057b576305f5e100830492506008015b61271083106200059057612710830492506004015b60648310620005a3576064830492506002015b600a8310620004225760010192915050565b634e487b7160e01b600052604160045260246000fd5b634e487b7160e01b600052602260045260246000fd5b600281046001821680620005f657607f821691505b6020821081036200060b576200060b620005cb565b50919050565b6000620004226200061f8381565b90565b6200062d8362000611565b81546008840282811b60001990911b908116901990911617825550505050565b60006200065c81848462000622565b505050565b818110156200068057620006776000826200064d565b60010162000661565b5050565b601f8211156200065c576000818152602090206020601f85010481016020851015620006ad5750805b620006c16020601f86010483018262000661565b5050505050565b81516001600160401b03811115620006e457620006e4620005b5565b620006f08254620005e1565b620006fd82828562000684565b6020601f8311600181146200073457600084156200071b5750858201515b600019600886021c198116600286021786555062000790565b600085815260208120601f198616915b8281101562000766578885015182556020948501946001909201910162000744565b86831015620007835784890151600019601f89166008021c191682555b6001600288020188555050505b505050505050565b60006001600160a01b03821662000422565b620007b58162000798565b82525050565b60005b83811015620007d8578181015183820152602001620007be565b50506000910152565b6000620007ec825190565b80845260208401935062000805818560208601620007bb565b601f01601f19169290920192915050565b60408101620008268285620007aa565b81810360208301526200083a8184620007e1565b949350505050565b805162000422565b600060208284031215620008615762000861600080fd5b60006200083a848462000842565b600081546200087e81620005e1565b600182168015620008985760018114620008ae57620008e0565b60ff1983168652811515820286019350620008e0565b60008581526020902060005b83811015620008d857815488820152600190910190602001620008ba565b838801955050505b50505092915050565b605f60f81b815260005b5060010190565b600062000905825190565b62000915818560208601620007bb565b9290920192915050565b60006200092d82866200086f565b91506200093a82620008e9565b9150620009488285620008fa565b91506200095582620008e9565b9150620009638284620008fa565b95945050505050565b80620007b5565b602081016200042282846200096c565b600560fb1b81526000620008f3565b602960f81b81526000620008f3565b6c021a922a0aa22902a20a126229609d1b8152600d016000620009c58286620008fa565b9150620009d282620008e9565b9150620009e08285620008fa565b9150620009ed8262000983565b9150620009fb8284620008fa565b9150620009638262000992565b611b7c8062000a186000396000f3fe6080604052600436106100965760003560e01c80631f4f0577116100695780638da5cb5b1161004e5780638da5cb5b14610191578063ab95fe00146101be578063af2888bb146101d357600080fd5b80631f4f057714610167578063625494541461017c57600080fd5b80630118565f1461009b5780630c1fa1ef146100c6578063150b7a021461010057806317c9a24c14610151575b600080fd5b3480156100a757600080fd5b506100b06101e6565b6040516100bd9190610f8b565b60405180910390f35b3480156100d257600080fd5b506100f36100e1366004610fcc565b60066020526000908152604090205481565b6040516100bd9190610ffd565b34801561010c57600080fd5b5061014461011b36600461110f565b7f150b7a0200000000000000000000000000000000000000000000000000000000949350505050565b6040516100bd91906111b6565b34801561015d57600080fd5b506100f360015481565b34801561017357600080fd5b506100b0610274565b61018f61018a3660046111c4565b610281565b005b34801561019d57600080fd5b506004546101b1906001600160a01b031681565b6040516100bd91906111ee565b3480156101ca57600080fd5b5061018f610533565b61018f6101e13660046111fc565b6106a1565b600380546101f390611269565b80601f016020809104026020016040519081016040528092919081815260200182805461021f90611269565b801561026c5780601f106102415761010080835404028352916020019161026c565b820191906000526020600020905b81548152906001019060200180831161024f57829003601f168201915b505050505081565b600280546101f390611269565b8061028b60005490565b81106102b25760405162461bcd60e51b81526004016102a9906112cc565b60405180910390fd5b60008281526007602052604090208054336001600160a01b03909116036102eb5760405162461bcd60e51b81526004016102a9906112dc565b8060010154341461030e5760405162461bcd60e51b81526004016102a990611371565b348160030160008282546103229190611397565b909155505080546040516001600160a01b03909116903480156108fc02916000818181858888f1935050505015801561035f573d6000803e3d6000fd5b50336000908152600660205260408120805460019290610380908490611397565b90915550506002810180546001810182556000918252602082200180547fffffffffffffffffffffffff0000000000000000000000000000000000000000163317905560038201546103da906103d590610ada565b610c5d565b6040516020016103ea91906113cc565b604051602081830303815290604052905060006104096103d586610ada565b60405160200161041991906113fe565b60405160208183030381529060405290506104326108d4565b6001600160a01b031663377af0da306001546104dc6002805461045490611269565b80601f016020809104026020016040519081016040528092919081815260200182805461048090611269565b80156104cd5780601f106104a2576101008083540402835291602001916104cd565b820191906000526020600020905b8154815290600101906020018083116104b057829003601f168201915b50505050506001548888610c86565b6040518463ffffffff1660e01b81526004016104fa93929190611430565b600060405180830381600087803b15801561051457600080fd5b505af1158015610528573d6000803e3d6000fd5b505050505050505050565b61053b6108d4565b6001600160a01b031663a15ab08d306105f66040518060800160405280605a8152602001611ac1605a91396002805461057390611269565b80601f016020809104026020016040519081016040528092919081815260200182805461059f90611269565b80156105ec5780601f106105c1576101008083540402835291602001916105ec565b820191906000526020600020905b8154815290600101906020018083116105cf57829003601f168201915b5050505050610aa3565b6040518363ffffffff1660e01b8152600401610613929190611466565b6020604051808303816000875af1158015610632573d6000803e3d6000fd5b505050506040513d601f19601f820116820180604052508101906106569190611491565b600155600261066446610ada565b61066f600154610ada565b60405160200161068193929190611551565b6040516020818303038152906040526003908161069e9190611634565b50565b60008251116106c25760405162461bcd60e51b81526004016102a99061172c565b600081116106e25760405162461bcd60e51b81526004016102a99061176e565b6106ea6108d4565b6001600160a01b031663377af0da306001546108076002805461070c90611269565b80601f016020809104026020016040519081016040528092919081815260200182805461073890611269565b80156107855780601f1061075a57610100808354040283529160200191610785565b820191906000526020600020905b81548152906001019060200180831161076857829003601f168201915b50505050506001546040518060600160405280602c8152602001611b1b602c91396107b76107b260005490565b610ada565b6107c08b610c5d565b6107cc6103d533610d01565b6107d58c610ada565b6107df6000610ada565b6040516020016107f395949392919061177e565b604051602081830303815290604052610d17565b6040518463ffffffff1660e01b815260040161082593929190611430565b600060405180830381600087803b15801561083f57600080fd5b505af1158015610853573d6000803e3d6000fd5b5050336000908152600560205260408120925061086f91505490565b8154600181018355600092835260208320015561088f9080546001019055565b3361089960005490565b7f57ce1f2f4225c7c8caad445b2ede3b81602520f681a45181e3f0510b4b0a848e846040516108c89190610f8b565b60405180910390a35050565b6000466001036108f7575073012969f7e3439a9b04025b5a049eb9bad82a8c1290565b46600a03610918575073fad44bf5b843de943a09d4f3e84949a11d3aa3e690565b4661a4b10361093a5750739abd75e8640871a5a20d3b4ee6330a04c962affd90565b4661a4ba0361095c5750731a22854c5b1642760a827f20137a67930ae108d290565b4660890361097d5750735c4e6a9e5c1e1bf445a062006faf19ea6c49afea90565b4661013a0361099f57507359ef8bf2d6c102b4c42aef9189e1a9f0abfd652d90565b4662aa36a7036109c2575073c50c62498448acc8dbde43da77f8d5d2e2c7597d90565b466101a4036109e4575073c72e8a7be04f2469f8c2db3f1bdf69a7d516abba90565b4662066eed03610a07575073033f69e8d119205089ab15d340f5b797732f646b90565b466201388103610a2a5750734b48841d4b32c4650e4abc117a03fe8b51f38f6890565b466204cb2f03610a4d575073030bcf3d50cad04c2e57391b12740982a930862190565b46617a6903610a6f575073e7f1725e7734ce288f8367e1bb143e90bb3f051290565b466040517f264e42cf0000000000000000000000000000000000000000000000000000000081526004016102a99190610ffd565b606081610aaf46610ada565b84604051602001610ac293929190611841565b60405160208183030381529060405290505b92915050565b60606000610ae783610b7b565b600101905060008167ffffffffffffffff811115610b0757610b0761101c565b6040519080825280601f01601f191660200182016040528015610b31576020820181803683370190505b5090508181016020015b600019017f3031323334353637383961626364656600000000000000000000000000000000600a86061a8153600a8504945084610b3b575b509392505050565b6000807a184f03e93ff9f4daa797ed6e38ed64bf6a1f0100000000000000008310610bc4577a184f03e93ff9f4daa797ed6e38ed64bf6a1f010000000000000000830492506040015b6d04ee2d6d415b85acef81000000008310610bf0576d04ee2d6d415b85acef8100000000830492506020015b662386f26fc100008310610c0e57662386f26fc10000830492506010015b6305f5e1008310610c26576305f5e100830492506008015b6127108310610c3a57612710830492506004015b60648310610c4c576064830492506002015b600a8310610ad45760010192915050565b606081604051602001610c7091906118d6565b6040516020818303038152906040529050919050565b60606000610c948686610d56565b60408051602081019091526000815284519192509015610cd15783604051602001610cbf9190611925565b60405160208183030381529060405290505b818582604051602001610ce693929190611966565b60405160208183030381529060405292505050949350505050565b6060610ad46001600160a01b0383166014610d7d565b60606000610d258686610d56565b9050808484604051602001610d3c939291906119af565b604051602081830303815290604052915050949350505050565b606082610d6246610ada565b610d6b84610ada565b604051602001610ac293929190611a26565b60606000610d8c836002611a32565b610d97906002611397565b67ffffffffffffffff811115610daf57610daf61101c565b6040519080825280601f01601f191660200182016040528015610dd9576020820181803683370190505b5090507f300000000000000000000000000000000000000000000000000000000000000081600081518110610e1057610e10611a51565b60200101906001600160f81b031916908160001a9053507f780000000000000000000000000000000000000000000000000000000000000081600181518110610e5b57610e5b611a51565b60200101906001600160f81b031916908160001a9053506000610e7f846002611a32565b610e8a906001611397565b90505b6001811115610f0f577f303132333435363738396162636465660000000000000000000000000000000085600f1660108110610ecb57610ecb611a51565b1a60f81b828281518110610ee157610ee1611a51565b60200101906001600160f81b031916908160001a90535060049490941c93610f0881611a67565b9050610e8d565b508315610f2e5760405162461bcd60e51b81526004016102a990611ab0565b9392505050565b60005b83811015610f50578181015183820152602001610f38565b50506000910152565b6000610f63825190565b808452602084019350610f7a818560208601610f35565b601f01601f19169290920192915050565b60208082528101610f2e8184610f59565b60006001600160a01b038216610ad4565b610fb681610f9c565b811461069e57600080fd5b8035610ad481610fad565b600060208284031215610fe157610fe1600080fd5b6000610fed8484610fc1565b949350505050565b805b82525050565b60208101610ad48284610ff5565b80610fb6565b8035610ad48161100b565b634e487b7160e01b600052604160045260246000fd5b601f19601f830116810181811067ffffffffffffffff821117156110585761105861101c565b6040525050565b600061106a60405190565b90506110768282611032565b919050565b600067ffffffffffffffff8211156110955761109561101c565b601f19601f83011660200192915050565b82818337506000910152565b60006110c56110c08461107b565b61105f565b9050828152602081018484840111156110e0576110e0600080fd5b610b738482856110a6565b600082601f8301126110ff576110ff600080fd5b8135610fed8482602086016110b2565b6000806000806080858703121561112857611128600080fd5b60006111348787610fc1565b945050602061114587828801610fc1565b935050604061115687828801611011565b925050606085013567ffffffffffffffff81111561117657611176600080fd5b611182878288016110eb565b91505092959194509250565b7fffffffff000000000000000000000000000000000000000000000000000000008116610ff7565b60208101610ad4828461118e565b6000602082840312156111d9576111d9600080fd5b6000610fed8484611011565b610ff781610f9c565b60208101610ad482846111e5565b6000806040838503121561121257611212600080fd5b823567ffffffffffffffff81111561122c5761122c600080fd5b611238858286016110eb565b925050602061124985828601611011565b9150509250929050565b634e487b7160e01b600052602260045260246000fd5b60028104600182168061127d57607f821691505b60208210810361128f5761128f611253565b50919050565b601981526000602082017f506f646361737420494420646f6573206e6f7420657869737400000000000000815291505b5060200190565b60208082528101610ad481611295565b60208082528101610ad481602381527f596f752063616e6e6f7420737570706f727420796f7572206f776e20706f646360208201527f6173740000000000000000000000000000000000000000000000000000000000604082015260600190565b601e81526000602082017f596f75206d7573742073656e642074686520657861637420616d6f756e740000815291506112c5565b60208082528101610ad48161133d565b634e487b7160e01b600052601160045260246000fd5b80820180821115610ad457610ad4611381565b60006113b4825190565b6113c2818560208601610f35565b9290920192915050565b7f746f74616c537570706f72743d000000000000000000000000000000000000008152600d016000610f2e82846113aa565b7f706f64636173744964000000000000000000000000000000000000000000000081526009016000610f2e82846113aa565b6060810161143e82866111e5565b61144b6020830185610ff5565b818103604083015261145d8184610f59565b95945050505050565b6040810161147482856111e5565b8181036020830152610fed8184610f59565b8051610ad48161100b565b6000602082840312156114a6576114a6600080fd5b6000610fed8484611486565b600081546114bf81611269565b6001821680156114d657600181146114eb5761151b565b60ff198316865281151582028601935061151b565b60008581526020902060005b83811015611513578154888201526001909101906020016114f7565b838801955050505b50505092915050565b7f5f00000000000000000000000000000000000000000000000000000000000000815260005b5060010190565b600061155d82866114b2565b915061156882611524565b915061157482856113aa565b915061157f82611524565b915061145d82846113aa565b6000610ad46115978381565b90565b6115a38361158b565b81546008840282811b60001990911b908116901990911617825550505050565b60006115d081848461159a565b505050565b818110156115f0576115e86000826115c3565b6001016115d5565b5050565b601f8211156115d0576000818152602090206020601f8501048101602085101561161b5750805b61162d6020601f8601048301826115d5565b5050505050565b815167ffffffffffffffff81111561164e5761164e61101c565b6116588254611269565b6116638282856115f4565b6020601f831160018114611697576000841561167f5750858201515b600019600886021c19811660028602178655506116f0565b600085815260208120601f198616915b828110156116c757888501518255602094850194600190920191016116a7565b868310156116e35784890151600019601f89166008021c191682555b6001600288020188555050505b505050505050565b601981526000602082017f4950465320686173682063616e6e6f7420626520656d70747900000000000000815291506112c5565b60208082528101610ad4816116f8565b60208082527f416d6f756e74206d7573742062652067726561746572207468616e207a65726f910190815260006112c5565b60208082528101610ad48161173c565b600061178a82886113aa565b600b60fa1b815260010191506117a082876113aa565b600b60fa1b815260010191506117b682866113aa565b600b60fa1b815260010191506117cc82856113aa565b600b60fa1b815260010191506117e282846113aa565b979650505050505050565b7f28000000000000000000000000000000000000000000000000000000000000008152600061154a565b7f29000000000000000000000000000000000000000000000000000000000000008152600061154a565b7f435245415445205441424c4520000000000000000000000000000000000000008152600d01600061187382866113aa565b915061187e82611524565b915061188a82856113aa565b9150611895826117ed565b91506118a182846113aa565b915061145d82611817565b7f27000000000000000000000000000000000000000000000000000000000000008152600061154a565b60006118e1826118ac565b91506118ed82846113aa565b9150610f2e826118ac565b7f2057484552452000000000000000000000000000000000000000000000000000815260005b5060070190565b6000611930826118f8565b9150610f2e82846113aa565b7f55504441544520000000000000000000000000000000000000000000000000008152600061191e565b60006119718261193c565b915061197d82866113aa565b7f20534554200000000000000000000000000000000000000000000000000000008152600501915061157f82856113aa565b7f494e5345525420494e544f2000000000000000000000000000000000000000008152600c0160006119e182866113aa565b91506119ec826117ed565b91506119f882856113aa565b7f2956414c554553280000000000000000000000000000000000000000000000008152915060088201611895565b600061155d82866113aa565b818102808215838204851417611a4a57611a4a611381565b5092915050565b634e487b7160e01b600052603260045260246000fd5b600081611a7657611a76611381565b506000190190565b60208082527f537472696e67733a20686578206c656e67746820696e73756666696369656e74910190815260006112c5565b60208082528101610ad481611a7e56fe706f6463617374496420696e7465676572207072696d617279206b65792c697066734861736820746578742c6f776e657220746578742c616d6f756e7420696e74656765722c746f74616c537570706f727420696e7465676572706f646361737449642c69706673486173682c6f776e65722c616d6f756e742c746f74616c537570706f7274a2646970667358221220451303ecd83139e2fff24a00f0a7da1c5c838577b9b92a58891931f4a1614f3264736f6c63430008110033706f6463617374496420696e7465676572207072696d617279206b65792c697066734861736820746578742c6f776e657220746578742c616d6f756e7420696e74656765722c746f74616c537570706f727420696e7465676572",
  "devdoc": {
    "kind": "dev",
    "methods": {
      "onERC721Received(address,address,uint256,bytes)": {
        "details": "See {IERC721Receiver-onERC721Received}. Always returns `IERC721Receiver.onERC721Received.selector`."
      }
    },
    "version": 1
  },
  "userdoc": {
    "errors": {
      "ChainNotSupported(uint256)": [
        {
          "notice": "Current chain does not have a TablelandTables deployment."
        }
      ]
    },
    "kind": "user",
    "methods": {},
    "version": 1
  },
  "storageLayout": {
    "storage": [
      {
        "astId": 2142,
        "contract": "contracts/LearningPodcast.sol:LearningPodcast",
        "label": "_podcastID",
        "offset": 0,
        "slot": "0",
        "type": "t_struct(Counter)50_storage"
      },
      {
        "astId": 2154,
        "contract": "contracts/LearningPodcast.sol:LearningPodcast",
        "label": "_tableId",
        "offset": 0,
        "slot": "1",
        "type": "t_uint256"
      },
      {
        "astId": 2157,
        "contract": "contracts/LearningPodcast.sol:LearningPodcast",
        "label": "_TABLE_PREFIX",
        "offset": 0,
        "slot": "2",
        "type": "t_string_storage"
      },
      {
        "astId": 2159,
        "contract": "contracts/LearningPodcast.sol:LearningPodcast",
        "label": "tableName",
        "offset": 0,
        "slot": "3",
        "type": "t_string_storage"
      },
      {
        "astId": 2161,
        "contract": "contracts/LearningPodcast.sol:LearningPodcast",
        "label": "owner",
        "offset": 0,
        "slot": "4",
        "type": "t_address"
      },
      {
        "astId": 2166,
        "contract": "contracts/LearningPodcast.sol:LearningPodcast",
        "label": "userToPodcasts",
        "offset": 0,
        "slot": "5",
        "type": "t_mapping(t_address,t_array(t_uint256)dyn_storage)"
      },
      {
        "astId": 2170,
        "contract": "contracts/LearningPodcast.sol:LearningPodcast",
        "label": "supportCount",
        "offset": 0,
        "slot": "6",
        "type": "t_mapping(t_address,t_uint256)"
      },
      {
        "astId": 2175,
        "contract": "contracts/LearningPodcast.sol:LearningPodcast",
        "label": "uintToPodcast",
        "offset": 0,
        "slot": "7",
        "type": "t_mapping(t_uint256,t_struct(Podcast)2152_storage)"
      }
    ],
    "types": {
      "t_address": {
        "encoding": "inplace",
        "label": "address",
        "numberOfBytes": "20"
      },
      "t_array(t_address)dyn_storage": {
        "base": "t_address",
        "encoding": "dynamic_array",
        "label": "address[]",
        "numberOfBytes": "32"
      },
      "t_array(t_uint256)dyn_storage": {
        "base": "t_uint256",
        "encoding": "dynamic_array",
        "label": "uint256[]",
        "numberOfBytes": "32"
      },
      "t_mapping(t_address,t_array(t_uint256)dyn_storage)": {
        "encoding": "mapping",
        "key": "t_address",
        "label": "mapping(address => uint256[])",
        "numberOfBytes": "32",
        "value": "t_array(t_uint256)dyn_storage"
      },
      "t_mapping(t_address,t_uint256)": {
        "encoding": "mapping",
        "key": "t_address",
        "label": "mapping(address => uint256)",
        "numberOfBytes": "32",
        "value": "t_uint256"
      },
      "t_mapping(t_uint256,t_struct(Podcast)2152_storage)": {
        "encoding": "mapping",
        "key": "t_uint256",
        "label": "mapping(uint256 => struct LearningPodcast.Podcast)",
        "numberOfBytes": "32",
        "value": "t_struct(Podcast)2152_storage"
      },
      "t_string_storage": {
        "encoding": "bytes",
        "label": "string",
        "numberOfBytes": "32"
      },
      "t_struct(Counter)50_storage": {
        "encoding": "inplace",
        "label": "struct Counters.Counter",
        "members": [
          {
            "astId": 49,
            "contract": "contracts/LearningPodcast.sol:LearningPodcast",
            "label": "_value",
            "offset": 0,
            "slot": "0",
            "type": "t_uint256"
          }
        ],
        "numberOfBytes": "32"
      },
      "t_struct(Podcast)2152_storage": {
        "encoding": "inplace",
        "label": "struct LearningPodcast.Podcast",
        "members": [
          {
            "astId": 2144,
            "contract": "contracts/LearningPodcast.sol:LearningPodcast",
            "label": "owner",
            "offset": 0,
            "slot": "0",
            "type": "t_address"
          },
          {
            "astId": 2146,
            "contract": "contracts/LearningPodcast.sol:LearningPodcast",
            "label": "amount",
            "offset": 0,
            "slot": "1",
            "type": "t_uint256"
          },
          {
            "astId": 2149,
            "contract": "contracts/LearningPodcast.sol:LearningPodcast",
            "label": "supporters",
            "offset": 0,
            "slot": "2",
            "type": "t_array(t_address)dyn_storage"
          },
          {
            "astId": 2151,
            "contract": "contracts/LearningPodcast.sol:LearningPodcast",
            "label": "totalSupport",
            "offset": 0,
            "slot": "3",
            "type": "t_uint256"
          }
        ],
        "numberOfBytes": "128"
      },
      "t_uint256": {
        "encoding": "inplace",
        "label": "uint256",
        "numberOfBytes": "32"
      }
    }
  }
}