{
  "address": "0x9b5ADa1E46C1A285FCD5F56745f8287d4DE0873f",
  "abi": [
    {
      "inputs": [],
      "stateMutability": "nonpayable",
      "type": "constructor"
    },
    {
      "inputs": [
        {
          "internalType": "uint256",
          "name": "chainid",
          "type": "uint256"
        }
      ],
      "name": "ChainNotSupported",
      "type": "error"
    },
    {
      "inputs": [],
      "name": "_mentorTableId",
      "outputs": [
        {
          "internalType": "uint256",
          "name": "",
          "type": "uint256"
        }
      ],
      "stateMutability": "view",
      "type": "function"
    },
    {
      "inputs": [],
      "name": "_studentTableId",
      "outputs": [
        {
          "internalType": "uint256",
          "name": "",
          "type": "uint256"
        }
      ],
      "stateMutability": "view",
      "type": "function"
    },
    {
      "inputs": [
        {
          "internalType": "string[]",
          "name": "details",
          "type": "string[]"
        },
        {
          "internalType": "string[]",
          "name": "languages",
          "type": "string[]"
        },
        {
          "internalType": "string[]",
          "name": "availability",
          "type": "string[]"
        }
      ],
      "name": "addMentor",
      "outputs": [],
      "stateMutability": "nonpayable",
      "type": "function"
    },
    {
      "inputs": [
        {
          "internalType": "string",
          "name": "name",
          "type": "string"
        },
        {
          "internalType": "string",
          "name": "nickname",
          "type": "string"
        },
        {
          "internalType": "string",
          "name": "additionalInfo",
          "type": "string"
        },
        {
          "internalType": "string",
          "name": "profileImage",
          "type": "string"
        },
        {
          "internalType": "string",
          "name": "coverImage",
          "type": "string"
        }
      ],
      "name": "addStudent",
      "outputs": [],
      "stateMutability": "nonpayable",
      "type": "function"
    },
    {
      "inputs": [
        {
          "internalType": "string[]",
          "name": "items",
          "type": "string[]"
        }
      ],
      "name": "concatArray",
      "outputs": [
        {
          "internalType": "string",
          "name": "",
          "type": "string"
        }
      ],
      "stateMutability": "pure",
      "type": "function"
    },
    {
      "inputs": [
        {
          "internalType": "uint256",
          "name": "id",
          "type": "uint256"
        },
        {
          "internalType": "string[]",
          "name": "details",
          "type": "string[]"
        },
        {
          "internalType": "string[]",
          "name": "languages",
          "type": "string[]"
        },
        {
          "internalType": "string[]",
          "name": "availability",
          "type": "string[]"
        }
      ],
      "name": "concatWriteQuery",
      "outputs": [
        {
          "internalType": "string",
          "name": "queryString",
          "type": "string"
        }
      ],
      "stateMutability": "pure",
      "type": "function"
    },
    {
      "inputs": [],
      "name": "createMentorTable",
      "outputs": [],
      "stateMutability": "nonpayable",
      "type": "function"
    },
    {
      "inputs": [],
      "name": "createStudentTable",
      "outputs": [],
      "stateMutability": "nonpayable",
      "type": "function"
    },
    {
      "inputs": [],
      "name": "owner",
      "outputs": [
        {
          "internalType": "address",
          "name": "",
          "type": "address"
        }
      ],
      "stateMutability": "view",
      "type": "function"
    }
  ],
  "transactionHash": "0xe218c59d60b250082adb57397c858ec842a34778f7b5167194d28f5cad1ac9b5",
  "args": [],
  "numDeployments": 1,
  "solcInputHash": "c35d03230531209f52aad9af119d1ebe",
  "bytecode": "0x60806040523480156200001157600080fd5b50600680546001600160a01b031916331790556200002e6200003e565b620000386200011f565b62000769565b620000536200020160201b620007f51760201c565b6001600160a01b031663a15ab08d30620000b56040518060c00160405280609f815260200162001fcc609f91396040518060400160405280600b81526020016a6d656e746f725461626c6560a81b815250620003ce60201b620009c41760201c565b6040518363ffffffff1660e01b8152600401620000d49291906200061f565b6020604051808303816000875af1158015620000f4573d6000803e3d6000fd5b505050506040513d601f19601f820116820180604052508101906200011a919062000653565b600555565b620001346200020160201b620007f51760201c565b6001600160a01b031663a15ab08d30620001976040518060a00160405280606b81526020016200206b606b91396040518060400160405280600c81526020016b73747564656e745461626c6560a01b815250620003ce60201b620009c41760201c565b6040518363ffffffff1660e01b8152600401620001b69291906200061f565b6020604051808303816000875af1158015620001d6573d6000803e3d6000fd5b505050506040513d601f19601f82011682018060405250810190620001fc919062000653565b600455565b60004660010362000225575073012969f7e3439a9b04025b5a049eb9bad82a8c1290565b46600a0362000247575073fad44bf5b843de943a09d4f3e84949a11d3aa3e690565b4661a4b1036200026a5750739abd75e8640871a5a20d3b4ee6330a04c962affd90565b4661a4ba036200028d5750731a22854c5b1642760a827f20137a67930ae108d290565b46608903620002af5750735c4e6a9e5c1e1bf445a062006faf19ea6c49afea90565b4661013a03620002d257507359ef8bf2d6c102b4c42aef9189e1a9f0abfd652d90565b4662aa36a703620002f6575073c50c62498448acc8dbde43da77f8d5d2e2c7597d90565b466101a40362000319575073c72e8a7be04f2469f8c2db3f1bdf69a7d516abba90565b4662066eed036200033d575073033f69e8d119205089ab15d340f5b797732f646b90565b466201388103620003615750734b48841d4b32c4650e4abc117a03fe8b51f38f6890565b466204cb2f0362000385575073030bcf3d50cad04c2e57391b12740982a930862190565b46617a6903620003a8575073e7f1725e7734ce288f8367e1bb143e90bb3f051290565b4660405163264e42cf60e01b8152600401620003c591906200067f565b60405180910390fd5b606081620003e7466200041460201b620009fb1760201c565b84604051602001620003fc93929190620006e3565b60405160208183030381529060405290505b92915050565b606060006200042e83620004b860201b62000a9c1760201c565b60010190506000816001600160401b0381111562000450576200045062000753565b6040519080825280601f01601f1916602001820160405280156200047b576020820181803683370190505b5090508181016020015b600019016f181899199a1a9b1b9c1cb0b131b232b360811b600a86061a8153600a85049450846200048557509392505050565b6000807a184f03e93ff9f4daa797ed6e38ed64bf6a1f010000000000000000831062000502577a184f03e93ff9f4daa797ed6e38ed64bf6a1f010000000000000000830492506040015b6d04ee2d6d415b85acef810000000083106200052f576d04ee2d6d415b85acef8100000000830492506020015b662386f26fc1000083106200054e57662386f26fc10000830492506010015b6305f5e100831062000567576305f5e100830492506008015b61271083106200057c57612710830492506004015b606483106200058f576064830492506002015b600a83106200040e5760010192915050565b60006001600160a01b0382166200040e565b620005be81620005a1565b82525050565b60005b83811015620005e1578181015183820152602001620005c7565b50506000910152565b6000620005f5825190565b8084526020840193506200060e818560208601620005c4565b601f01601f19169290920192915050565b604081016200062f8285620005b3565b8181036020830152620006438184620005ea565b949350505050565b80516200040e565b6000602082840312156200066a576200066a600080fd5b60006200064384846200064b565b80620005be565b602081016200040e828462000678565b60006200069a825190565b620006aa818560208601620005c4565b9290920192915050565b605f60f81b815260005b5060010190565b600560fb1b81526000620006be565b602960f81b81526000620006be565b6c021a922a0aa22902a20a126229609d1b8152600d0160006200070782866200068f565b91506200071482620006b4565b91506200072282856200068f565b91506200072f82620006c5565b91506200073d82846200068f565b91506200074a82620006d4565b95945050505050565b634e487b7160e01b600052604160045260246000fd5b61185380620007796000396000f3fe608060405234801561001057600080fd5b50600436106100a35760003560e01c80639d35e6c211610076578063b16d39781161005b578063b16d397814610138578063bbb6a8bc14610140578063d276d2281461014857600080fd5b80639d35e6c21461011c578063a16e29971461012f57600080fd5b806328cd7eb1146100a85780638226806a146100bd57806387290015146100dc5780638da5cb5b146100fc575b600080fd5b6100bb6100b6366004610dc8565b61015b565b005b6100c660045481565b6040516100d39190610e70565b60405180910390f35b6100ef6100ea366004610e85565b610294565b6040516100d39190610f90565b60065461010f906001600160a01b031681565b6040516100d39190610fc2565b6100bb61012a366004610fd0565b61040c565b6100c660055481565b6100bb610584565b6100bb610646565b6100ef6101563660046110ce565b610707565b3360009081526003602052604090205460ff1615156001036101985760405162461bcd60e51b815260040161018f90611140565b60405180910390fd5b60006101ae6101a660015490565b858585610294565b90506101b86107f5565b6001600160a01b031663377af0da306005546102136040518060400160405280600b81526020016a6d656e746f725461626c6560a81b8152506005546040518060800160405280605f8152602001611677605f913988610b7e565b6040518463ffffffff1660e01b815260040161023193929190611150565b600060405180830381600087803b15801561024b57600080fd5b505af115801561025f573d6000803e3d6000fd5b5050336000908152600360205260409020805460ff1916600190811790915561028e9250905080546001019055565b50505050565b606060058451116102b75760405162461bcd60e51b815260040161018f906111ba565b60006102c284610707565b905060006102cf84610707565b905060005b86518110156104015780600003610338576102ee886109fb565b61031188600081518110610304576103046111ca565b6020026020010151610bbd565b604051602001610322929190611202565b60405160208183030381529060405293506103ef565b8060020361037b5783610356888381518110610304576103046111ca565b61035f85610bbd565b61036885610bbd565b6040516020016103229493929190611224565b600187516103899190611288565b81036103b657836103a5888381518110610304576103046111ca565b60405160200161032292919061129b565b836103cc888381518110610304576103046111ca565b6040516020016103dd9291906112b3565b60405160208183030381529060405293505b806103f9816112df565b9150506102d4565b505050949350505050565b3360009081526002602052604090205460ff1615156001036104405760405162461bcd60e51b815260040161018f9061132d565b6104486107f5565b6001600160a01b031663377af0da306004546105056040518060400160405280600c81526020016b73747564656e745461626c6560a01b8152506004546040518060600160405280603e81526020016117e0603e91396104af6104aa60005490565b6109fb565b6104b88e610bbd565b6104c18e610bbd565b6104ca8e610bbd565b6104d38e610bbd565b6104dc8e610bbd565b6040516020016104f19695949392919061133d565b604051602081830303815290604052610b7e565b6040518463ffffffff1660e01b815260040161052393929190611150565b600060405180830381600087803b15801561053d57600080fd5b505af1158015610551573d6000803e3d6000fd5b5050336000908152600260205260408120805460ff1916600117905561057d9250905080546001019055565b5050505050565b61058c6107f5565b6001600160a01b031663a15ab08d306105e16040518060a00160405280606b8152602001611775606b91396040518060400160405280600c81526020016b73747564656e745461626c6560a01b8152506109c4565b6040518363ffffffff1660e01b81526004016105fe9291906113c3565b6020604051808303816000875af115801561061d573d6000803e3d6000fd5b505050506040513d601f19601f8201168201806040525081019061064191906113ea565b600455565b61064e6107f5565b6001600160a01b031663a15ab08d306106a26040518060c00160405280609f81526020016116d6609f91396040518060400160405280600b81526020016a6d656e746f725461626c6560a81b8152506109c4565b6040518363ffffffff1660e01b81526004016106bf9291906113c3565b6020604051808303816000875af11580156106de573d6000803e3d6000fd5b505050506040513d601f19601f8201168201806040525081019061070291906113ea565b600555565b60608060005b83518110156107ee578060000361075e57838181518110610730576107306111ca565b6020026020010151604051602001610748919061140b565b60405160208183030381529060405291506107dc565b6001845161076c9190611288565b810361079e5781848281518110610785576107856111ca565b602002602001015160405160200161074892919061144e565b818482815181106107b1576107b16111ca565b60200260200101516040516020016107ca9291906112b3565b60405160208183030381529060405291505b806107e6816112df565b91505061070d565b5092915050565b600046600103610818575073012969f7e3439a9b04025b5a049eb9bad82a8c1290565b46600a03610839575073fad44bf5b843de943a09d4f3e84949a11d3aa3e690565b4661a4b10361085b5750739abd75e8640871a5a20d3b4ee6330a04c962affd90565b4661a4ba0361087d5750731a22854c5b1642760a827f20137a67930ae108d290565b4660890361089e5750735c4e6a9e5c1e1bf445a062006faf19ea6c49afea90565b4661013a036108c057507359ef8bf2d6c102b4c42aef9189e1a9f0abfd652d90565b4662aa36a7036108e3575073c50c62498448acc8dbde43da77f8d5d2e2c7597d90565b466101a403610905575073c72e8a7be04f2469f8c2db3f1bdf69a7d516abba90565b4662066eed03610928575073033f69e8d119205089ab15d340f5b797732f646b90565b46620138810361094b5750734b48841d4b32c4650e4abc117a03fe8b51f38f6890565b466204cb2f0361096e575073030bcf3d50cad04c2e57391b12740982a930862190565b46617a6903610990575073e7f1725e7734ce288f8367e1bb143e90bb3f051290565b466040517f264e42cf00000000000000000000000000000000000000000000000000000000815260040161018f9190610e70565b6060816109d0466109fb565b846040516020016109e39392919061150e565b60405160208183030381529060405290505b92915050565b60606000610a0883610a9c565b600101905060008167ffffffffffffffff811115610a2857610a28610c0d565b6040519080825280601f01601f191660200182016040528015610a52576020820181803683370190505b5090508181016020015b600019017f3031323334353637383961626364656600000000000000000000000000000000600a86061a8153600a8504945084610a5c575b509392505050565b6000807a184f03e93ff9f4daa797ed6e38ed64bf6a1f0100000000000000008310610ae5577a184f03e93ff9f4daa797ed6e38ed64bf6a1f010000000000000000830492506040015b6d04ee2d6d415b85acef81000000008310610b11576d04ee2d6d415b85acef8100000000830492506020015b662386f26fc100008310610b2f57662386f26fc10000830492506010015b6305f5e1008310610b47576305f5e100830492506008015b6127108310610b5b57612710830492506004015b60648310610b6d576064830492506002015b600a83106109f55760010192915050565b60606000610b8c8686610be6565b9050808484604051602001610ba393929190611579565b604051602081830303815290604052915050949350505050565b606081604051602001610bd0919061161a565b6040516020818303038152906040529050919050565b606082610bf2466109fb565b610bfb846109fb565b6040516020016109e39392919061163c565b634e487b7160e01b600052604160045260246000fd5b601f19601f830116810181811067ffffffffffffffff82111715610c4957610c49610c0d565b6040525050565b6000610c5b60405190565b9050610c678282610c23565b919050565b600067ffffffffffffffff821115610c8657610c86610c0d565b5060209081020190565b600067ffffffffffffffff821115610caa57610caa610c0d565b601f19601f83011660200192915050565b82818337506000910152565b6000610cda610cd584610c90565b610c50565b905082815260208101848484011115610cf557610cf5600080fd5b610a94848285610cbb565b600082601f830112610d1457610d14600080fd5b8135610d24848260208601610cc7565b949350505050565b6000610d3a610cd584610c6c565b83815290506020808201908402830185811115610d5957610d59600080fd5b835b81811015610d9a57803567ffffffffffffffff811115610d7d57610d7d600080fd5b808601610d8a8982610d00565b8552505060209283019201610d5b565b5050509392505050565b600082601f830112610db857610db8600080fd5b8135610d24848260208601610d2c565b600080600060608486031215610de057610de0600080fd5b833567ffffffffffffffff811115610dfa57610dfa600080fd5b610e0686828701610da4565b935050602084013567ffffffffffffffff811115610e2657610e26600080fd5b610e3286828701610da4565b925050604084013567ffffffffffffffff811115610e5257610e52600080fd5b610e5e86828701610da4565b9150509250925092565b805b82525050565b602081016109f58284610e68565b80356109f5565b60008060008060808587031215610e9e57610e9e600080fd5b6000610eaa8787610e7e565b945050602085013567ffffffffffffffff811115610eca57610eca600080fd5b610ed687828801610da4565b935050604085013567ffffffffffffffff811115610ef657610ef6600080fd5b610f0287828801610da4565b925050606085013567ffffffffffffffff811115610f2257610f22600080fd5b610f2e87828801610da4565b91505092959194509250565b60005b83811015610f55578181015183820152602001610f3d565b50506000910152565b6000610f68825190565b808452602084019350610f7f818560208601610f3a565b601f01601f19169290920192915050565b60208082528101610fa18184610f5e565b9392505050565b60006001600160a01b0382166109f5565b610e6a81610fa8565b602081016109f58284610fb9565b600080600080600060a08688031215610feb57610feb600080fd5b853567ffffffffffffffff81111561100557611005600080fd5b61101188828901610d00565b955050602086013567ffffffffffffffff81111561103157611031600080fd5b61103d88828901610d00565b945050604086013567ffffffffffffffff81111561105d5761105d600080fd5b61106988828901610d00565b935050606086013567ffffffffffffffff81111561108957611089600080fd5b61109588828901610d00565b925050608086013567ffffffffffffffff8111156110b5576110b5600080fd5b6110c188828901610d00565b9150509295509295909350565b6000602082840312156110e3576110e3600080fd5b813567ffffffffffffffff8111156110fd576110fd600080fd5b610d2484828501610da4565b601881526000602082017f596f752061726520616c72656164792061204d656e746f720000000000000000815291505b5060200190565b602080825281016109f581611109565b6060810161115e8286610fb9565b61116b6020830185610e68565b818103604083015261117d8184610f5e565b95945050505050565b600f81526000602082017f617272617920746f6f2073686f7274000000000000000000000000000000000081529150611139565b602080825281016109f581611186565b634e487b7160e01b600052603260045260246000fd5b60006111ea825190565b6111f8818560208601610f3a565b9290920192915050565b600061120e82856111e0565b600b60fa1b81526001019150610d2482846111e0565b600061123082876111e0565b915061123c82866111e0565b915061124882856111e0565b600b60fa1b8152600101915061125e82846111e0565b600b60fa1b81526001019695505050505050565b634e487b7160e01b600052601160045260246000fd5b818103818111156109f5576109f5611272565b60006112a782856111e0565b9150610d2482846111e0565b60006112bf82856111e0565b91506112cb82846111e0565b600b60fa1b815291505b5060010192915050565b600060001982036112f2576112f2611272565b5060010190565b601981526000602082017f596f752061726520616c726561647920612073747564656e740000000000000081529150611139565b602080825281016109f5816112f9565b600061134982896111e0565b600b60fa1b8152600101915061135f82886111e0565b600b60fa1b8152600101915061137582876111e0565b600b60fa1b8152600101915061138b82866111e0565b600b60fa1b815260010191506113a182856111e0565b600b60fa1b815260010191506113b782846111e0565b98975050505050505050565b604081016113d18285610fb9565b8181036020830152610d248184610f5e565b80516109f5565b6000602082840312156113ff576113ff600080fd5b6000610d2484846113e3565b7f7b000000000000000000000000000000000000000000000000000000000000008152600101600061143d82846111e0565b600b60fa1b81526001019392505050565b600061145a82856111e0565b915061146682846111e0565b7f7d00000000000000000000000000000000000000000000000000000000000000815291506112d5565b7f5f00000000000000000000000000000000000000000000000000000000000000815260006112f2565b7f2800000000000000000000000000000000000000000000000000000000000000815260006112f2565b7f2900000000000000000000000000000000000000000000000000000000000000815260006112f2565b7f435245415445205441424c4520000000000000000000000000000000000000008152600d01600061154082866111e0565b915061154b82611490565b915061155782856111e0565b9150611562826114ba565b915061156e82846111e0565b915061117d826114e4565b7f494e5345525420494e544f2000000000000000000000000000000000000000008152600c0160006115ab82866111e0565b91506115b6826114ba565b91506115c282856111e0565b7f2956414c554553280000000000000000000000000000000000000000000000008152915060088201611562565b7f2700000000000000000000000000000000000000000000000000000000000000815260006112f2565b6000611625826115f0565b915061163182846111e0565b9150610fa1826115f0565b600061164882866111e0565b915061165382611490565b915061165f82856111e0565b915061166a82611490565b915061117d82846111e056fe6d656e746f7249642c6e616d652c6e69636b6e616d652c657870657269656e63652c6c616e6775616765732c617661696c6162696c6974792c6164646974696f6e616c496e666f2c70726f66696c65496d6167652c636f766572496d6167656d656e746f72496420696e7465676572207072696d617279206b65792c6e616d6520746578742c6e69636b6e616d6520746578742c657870657269656e636520746578742c6c616e67756167657320746578745b5d2c617661696c6162696c69747920746578745b5d2c6164646974696f6e616c496e666f20746578742c70726f66696c65496d61676520746578742c636f766572496d616765207465787473747564656e74496420696e7465676572207072696d617279206b65792c6e616d6520746578742c6e69636b6e616d6520746578742c6164646974696f6e616c496e666f20746578742c70726f66696c65496d61676520746578742c636f766572496d616765207465787473747564656e7449642c6e616d652c6e69636b6e616d652c6164646974696f6e616c496e666f2c70726f66696c65496d6167652c636f766572496d616765a26469706673582212207f0abeaf878bfec241cb73ad263c9a6affc08cb4c1b75d6f327368faa4aef6c264736f6c634300081100336d656e746f72496420696e7465676572207072696d617279206b65792c6e616d6520746578742c6e69636b6e616d6520746578742c657870657269656e636520746578742c6c616e67756167657320746578745b5d2c617661696c6162696c69747920746578745b5d2c6164646974696f6e616c496e666f20746578742c70726f66696c65496d61676520746578742c636f766572496d616765207465787473747564656e74496420696e7465676572207072696d617279206b65792c6e616d6520746578742c6e69636b6e616d6520746578742c6164646974696f6e616c496e666f20746578742c70726f66696c65496d61676520746578742c636f766572496d6167652074657874",
  "devdoc": {
    "kind": "dev",
    "methods": {},
    "version": 1
  },
  "userdoc": {
    "errors": {
      "ChainNotSupported(uint256)": [
        {
          "notice": "Current chain does not have a TablelandTables deployment."
        }
      ]
    },
    "kind": "user",
    "methods": {},
    "version": 1
  },
  "storageLayout": {
    "storage": [
      {
        "astId": 2945,
        "contract": "contracts/userProfile.sol:userProfile",
        "label": "_studentID",
        "offset": 0,
        "slot": "0",
        "type": "t_struct(Counter)50_storage"
      },
      {
        "astId": 2948,
        "contract": "contracts/userProfile.sol:userProfile",
        "label": "_mentorID",
        "offset": 0,
        "slot": "1",
        "type": "t_struct(Counter)50_storage"
      },
      {
        "astId": 2952,
        "contract": "contracts/userProfile.sol:userProfile",
        "label": "isStudent",
        "offset": 0,
        "slot": "2",
        "type": "t_mapping(t_address,t_bool)"
      },
      {
        "astId": 2956,
        "contract": "contracts/userProfile.sol:userProfile",
        "label": "isMentor",
        "offset": 0,
        "slot": "3",
        "type": "t_mapping(t_address,t_bool)"
      },
      {
        "astId": 2958,
        "contract": "contracts/userProfile.sol:userProfile",
        "label": "_studentTableId",
        "offset": 0,
        "slot": "4",
        "type": "t_uint256"
      },
      {
        "astId": 2963,
        "contract": "contracts/userProfile.sol:userProfile",
        "label": "_mentorTableId",
        "offset": 0,
        "slot": "5",
        "type": "t_uint256"
      },
      {
        "astId": 2968,
        "contract": "contracts/userProfile.sol:userProfile",
        "label": "owner",
        "offset": 0,
        "slot": "6",
        "type": "t_address"
      }
    ],
    "types": {
      "t_address": {
        "encoding": "inplace",
        "label": "address",
        "numberOfBytes": "20"
      },
      "t_bool": {
        "encoding": "inplace",
        "label": "bool",
        "numberOfBytes": "1"
      },
      "t_mapping(t_address,t_bool)": {
        "encoding": "mapping",
        "key": "t_address",
        "label": "mapping(address => bool)",
        "numberOfBytes": "32",
        "value": "t_bool"
      },
      "t_struct(Counter)50_storage": {
        "encoding": "inplace",
        "label": "struct Counters.Counter",
        "members": [
          {
            "astId": 49,
            "contract": "contracts/userProfile.sol:userProfile",
            "label": "_value",
            "offset": 0,
            "slot": "0",
            "type": "t_uint256"
          }
        ],
        "numberOfBytes": "32"
      },
      "t_uint256": {
        "encoding": "inplace",
        "label": "uint256",
        "numberOfBytes": "32"
      }
    }
  }
}